:020000040800F2
:103000004043002041CC0008F1330008F3330008AE
:10301000F5330008F7330008F9330008000000001A
:10302000000000000000000000000000FB3300086A
:10303000FD3300080000000097EB0008FF33000894
:103040006BCC00086BCC00086BCC000889340008FE
:103050006BCC00086BCC00085137000863370008C0
:103060007537000887370008993700086BCC0008CF
:103070006BCC00086BCC00086BCC00086BCC000854
:103080006BCC00086BCC00086BCC00082734000820
:10309000293400082B3400082D340008413600087C
:1030A0006BCC00086BCC00086BCC0008AD3400087A
:1030B000E534000859350008CD3500086BCC000810
:1030C0006BCC00086BCC00086BCC000825340008E2
:1030D000233400085D34000881340008853400087A
:1030E000B73600086BCC00086BCC0008DFF80CD0BA
:1030F00010F036FD004800474133000840430020EF
:10310000704770470AF0BBBB704770477047A14AD1
:1031100010B51068401C10600A2819D100201060FA
:103120005068401C6421B0FBF1F3506001FB1300B8
:1031300010B99068401C906009F0B8FE0BF012F8CE
:103140000024204601F053F8641CE4B2032CF8D3A9
:1031500010BD9049496808448142FDDB704710B5B5
:1031600000F06DFEBDE8104006F002BA10B58078A0
:1031700020B1022809D003280AD102E0FFF7EFFFAF
:1031800006E0002000F0FCFD02E0002000F024FE3C
:10319000002010BD10B50446012000F0FBFD7E4A62
:1031A00000211170E0787D4C20707D4800684078E7
:1031B000092809D00D280AD001F00DFC10B12078A3
:1031C00001F018FC002010BD01F05EFBF6E701F0F5
:1031D000BDFBF3E708B529208DF8000000208DF82D
:1031E000010068460AF077F82A208DF800000120D7
:1031F0008DF8010068460AF06EF82B208DF800006B
:1032000002208DF8010068460AF065F82C208DF840
:10321000000003208DF8010068460AF05CF808BD44
:1032200010B5022001F09DF90AF0ACFA00F030FD73
:1032300000F07EFD00F0F0FD002000F0F9FD00F050
:1032400093FD00F0BDFD01F0D3F80AF0F4FB0AF0A5
:103250003FFD0BF0E3F920B152A1002001F06FF91E
:1032600001E000F061FB09F0DBFFFFF7B3FF0BF0BB
:103270004FFB002001F092FC18B14EA1002001F09C
:103280005EF906F06CFF06F030FE0AF0DFFA4FF64A
:10329000FF7364220221002009F0D7FDBDE8104031
:1032A000012000F0A3BD10B5817821B1012907D01C
:1032B000112905D102E0FFF7B3FF01E003F070FC34
:1032C000002010BD10B58178808805F03CFF0020FB
:1032D00010BD10B500210A2009F0D3FE002805D04A
:1032E00000218170BDE8104009F0E2BE10BD0178F8
:1032F000032907D0072907D00A2904D00B2904D0B5
:103300000020704732E7CEE7DCE743E7EFE708B598
:103310000AF074FAAFF20B034FF400722A4903204B
:1033200009F0F1FE6A4629A103200CF086FBFFF7A5
:10333000D0FF00226423114610460CF0E8FCF8E7A9
:1033400000B587B00BF05AFC4FF440514FF00060CD
:1033500009F050FC4FF4A06009F01AFC0BF0EBFCF4
:103360001D480DF1040C032300228021ACE80F005E
:10337000062003460090194A002119480CF005FA6E
:1033800005AA18A106200CF058FB0BF0D4FD07B0DD
:10339000002000BD00000020190000201A000020BD
:1033A000585D0108496E697420534E56204572726B
:1033B0006F72000041443737393920496E697420F3
:1033C0004661696C00000000F00100204D61696EEB
:1033D0002D5461736B000000F0090020EC0B0020FD
:1033E0000F330008526F6F742D5461736B0000002F
:1033F0007047FEE7FEE7FEE7FEE77047704710B54F
:103400000BF0A8FBFC49097819B1FC490A78521C59
:103410000A700BF0A3FB0BF0A1FDBDE810400BF010
:103420001ABD70477047704770477047704700EB90
:103430000011C1EBC01110B5F14800EB810440F25E
:103440002551D4F8900109F074FB002805D0D4F878
:103450009001BDE8104009F005BB10BD10B5E94C66
:1034600040F22551204609F064FB002807D0204691
:1034700009F0F8FABDE81040C0B200F0F0BF10BD8E
:103480000120D4E70220D2E7DF48018801888907BC
:1034900003D5018821F002010180018840F6FA720B
:1034A0001140018001888906FCD5704710B5D74CC2
:1034B0000221204608F0BCFE002812D0022120463E
:1034C00008F0C2FE204608F09CFE00F57A7081B23A
:1034D000204608F085FE0221BDE8104003200AF0D6
:1034E0009FBD10BD10B501218C07204608F0A0FE3D
:1034F00038B10121204608F0A7FE012100200AF082
:103500008FFD0221204608F093FE38B102212046AB
:1035100008F09AFE022100200AF082FD04212046D4
:1035200008F086FE38B10421204608F08DFE042103
:1035300000200AF075FD0821204608F079FE0028D9
:1035400009D00821204608F07FFE0821BDE8104080
:1035500000200AF065BD10BD10B5AD4C012120461C
:1035600008F066FE38B10121204608F06DFE012109
:1035700008460AF055FD0221204608F059FE38B1F0
:103580000221204608F060FE022101200AF048FDD9
:103590000421204608F04CFE38B10421204608F0F2
:1035A00053FE042101200AF03BFD0821204608F0CB
:1035B0003FFE002809D00821204608F045FE0821DA
:1035C000BDE8104001200AF02BBD10BD10B5914C94
:1035D0000121204608F02CFE38B10121204608F0D8
:1035E00033FE012102200AF01BFD0221204608F0D3
:1035F0001FFE38B10221204608F026FE02210846AF
:103600000AF00EFD0421204608F012FE38B1042114
:10361000204608F019FE042102200AF001FD0821CD
:10362000204608F005FE002809D00821204608F0B1
:103630000BFE0821BDE8104002200AF0F1BC10BDCD
:1036400010B5202007F0DAFC28B1202007F0E4FCB8
:1036500005200AF061F8402007F0D0FC28B1402096
:1036600007F0DAFC06200AF057F8802007F0C6FCC5
:1036700028B1802007F0D0FC07200AF04DF84FF465
:103680008074204607F0BAFC28B1204607F0C4FC3D
:1036900008200AF041F84FF40074204607F0AEFC11
:1036A000002807D0204607F0B7FCBDE810400920ED
:1036B0000AF032B810BD10B54FF48064204607F010
:1036C0009DFC28B1204607F0A7FC0A200AF024F848
:1036D0004FF40064204607F091FC28B1204607F023
:1036E0009BFC0B200AF018F84FF48054204607F09A
:1036F00085FC28B1204607F08FFC0C200AF00CF85E
:103700004FF40054204607F079FC28B1204607F01A
:1037100083FC0D200AF000F84FF48044204607F0A7
:103720006DFC28B1204607F077FC0E2009F0F4FF6D
:103730004FF40044204607F061FC002807D02046E3
:1037400007F06AFCBDE810400F2009F0E5BF10BD8E
:1037500010B5012007F060FCBDE81040002009F022
:10376000DBBF10B5022007F057FCBDE81040012078
:1037700009F0D2BF10B5042007F04EFCBDE81040A0
:10378000022009F0C9BF10B5082007F045FCBDE8CC
:103790001040032009F0C0BF10B5102007F03CFC1A
:1037A000BDE81040042009F0B7BFD0E900BAD0E965
:1037B00002981030F0C818A010F058FC59461CA010
:1037C00010F054FC51461DA010F050FC49461EA0BC
:1037D00010F04CFC41461FA010F048FC214620A0F0
:1037E00010F044FC294621A010F040FC314622A0F4
:1037F00010F03CFC394645E0A9010020A40100205E
:10380000601100200038014004280040002C0140D5
:1038100000040040000800405B486172642066615B
:10382000756C742068616E646C65725D0A000000DE
:103830005230203D2025780A000000005231203D02
:103840002025780A000000005232203D2025780A09
:10385000000000005233203D2025780A00000000BF
:10386000523132203D2025780A0000004C52203D84
:103870002025780A000000005043203D2025780ACA
:103880000000000010A010F0F1FB1248016812A027
:1038900010F0ECFB0F481038016812A010F0E6FBA6
:1038A0000C480C38016812A010F0E0FB09480838F9
:1038B000016812A010F0DAFB0648001D016812A092
:1038C00010F0D4FBFEE70000505352203D20257835
:1038D0000A00000038ED00E042464152203D20251C
:1038E000780A000043465352203D2025780A000004
:1038F00048465352203D2025780A00004446535242
:10390000203D2025780A000041465352203D2025C5
:10391000780A0000D04870470AF08ABECF48008875
:103920007047CE484088704770B52221CC480FF0D0
:103930006BFBCA4A022121200AF0E8FEC74C002591
:1039400000B12580C54A0221921CB0200AF0DEFE9B
:1039500000B16580C24A1021A0200AF0D7FE18B13C
:10396000C0A1BF480FF087FBBD4A10211132144699
:10397000A1200AF0CBFE002805D02046BDE870400B
:10398000BAA10FF078BB70BD70B5BA4B1C6822703D
:103990001D6809246C701C68A0701868C01C0FF0AA
:1039A0001AFBB5480078BDE8704001F023B82DE956
:1039B000F04116460F4605460BF0CCF8804608F05D
:1039C000FEFC284608F035FD002406E0395928465B
:1039D00008F0D3FD2D1D241DA4B2B442F6D308F087
:1039E000FAFC40460BF0BAF80020BDE8F08110B5B3
:1039F000C11C1822A1480FF0EEFA192010BD70B5B5
:103A0000954D0146ED1E1446E81E2A5D035D9B4858
:103A1000C91C803018440FF0DEFA285D401CC0B28B
:103A200070BD00210160192070478B4A921F525CC3
:103A3000803202608848C01E405C401CC0B27047A3
:103A40002DE9F84F1D4614468A46064609F017FF31
:103A5000DFF82C824FF420794A46414687480FF020
:103A6000BAFAB278002742B1012A0DD0022A0BD04F
:103A7000032A09D0FF20BDE8F88F51463046FFF7F2
:103A8000B6FF034600970AE0521E51463046FFF744
:103A9000B6FFB1780346491E6846FFF7C6FF277098
:103AA000D0206070754800991A460144E01C0FF060
:103AB00092FA09F0E4FE4A4670494046FFF777FF64
:103AC000A07808B900F061FA287821780844801CB1
:103AD00028700020CFE738B51D468178144603468C
:103AE00039B1012909D0022907D0032905D0FF20C7
:103AF00038BD00200090192003E0491E6846FFF7FA
:103B000094FF9978A170411C217010216170421EB0
:103B10005B4900980144E01C0FF05DFA2878217899
:103B20000844801C2870002038BD10B5091FCAB297
:103B3000817821B9C378011D184600F084FA00206D
:103B400010BD51494F48086070472DE9FC411546AA
:103B50008778C2798179CDE900121C4607F26C772B
:103B600043790279C1780026384609F005FF2E70A6
:103B7000C02068702078801C2070BDE8FC8170B582
:103B80001D4614460AF0A4F806202070C12060707B
:103B90003E480179A1F26C71A1708179E170C1791F
:103BA0002171017861714178A1718078E071287884
:103BB0000830287070BD70B5841C1D4680780AF0EE
:103BC00091F82E4901200870C22048702078887032
:103BD0002878C01C287070BD70B544780025164642
:103BE000D12C15D008DCC02C1DD0C12C20D0C22C6B
:103BF00023D0D02C2DD106E0F02C27D0F12C21D0D1
:103C0000FD2C26D10AE00A463146FFF719FF03E0F2
:103C10000A463146FFF75FFF05461AE00A4631467D
:103C2000FFF783FFF8E70A463146FFF78EFF10E003
:103C30000A463146FFF7A3FF0BE00A463146FFF77D
:103C4000BAFF06E0012000F0D1F802E0012000F008
:103C5000A1F8284670BDBFE7C25C01080C00002037
:103C6000F00F002041444D494E00000038363038F6
:103C700036300000585D01081A000020F00B0020CB
:103C800000F401080400FA050CED00E0F423002024
:103C90002DE9F041244D254E00244FF40478285D91
:103CA000414609F00CFC285D002109F034FC06EBCC
:103CB0004410074620210FF0A7F93C70641C0A2C21
:103CC000EDDBBDE8F081184A105C09F024BC164910
:103CD00010B5085C09F012FCC0B210BD1249085CB6
:103CE00009F028BC10B5044600780021FFF7EBFF6F
:103CF000E069002802D0BDE81040004710BD7CB547
:103D00000D460A4901EB40140121E261FFF7DBFF98
:103D1000201DAFF22F03CDE900402A4600211046B6
:103D20000AF0E9F97CBD0000D65C010814100020FF
:103D300070B501210A4807F057FA0A4D00244FF4E4
:103D40001276285D314609F0BAFB641C012CF8DBC1
:103D500070BD044910B5085C09F0D0FBC0B210BDBD
:103D600000043000E05C010810B54FF404710F202E
:103D700009F0A5FB0121BDE810400F2009F0CBBBE5
:103D800008B1002100E001210F2009F0C4BB0F2081
:103D900009F0D0BB10B504000ED00120FFF7F0FFF2
:103DA000642044430A20B4FBF0F200230121BDE863
:103DB0001040032009F049B8BDE810400020DFE7BB
:103DC00010B54FF40471082009F079FB0021BDE81B
:103DD0001040082009F09FBB08B1012100E000213C
:103DE000082009F098BB082009F0A4BB10B5040016
:103DF0000ED00120FFF7F0FF642044430A20B4FBFB
:103E0000F0F200230121BDE81040022009F01DB8A6
:103E1000BDE810400020DFE710B54FF404713220F8
:103E200009F04DFB0121BDE81040322009F073BBC1
:103E300008B1002100E00121322009F06CBB3220E2
:103E400009F078BB38B50D4600EB0011C1EBC0118D
:103E5000FE4800EB810494F88C01A84209D0D4F804
:103E6000B8013DB1002804D10BF0EDF9C4F8B80158
:103E700028B938BD18B16A4601210BF0CEFA84F892
:103E80008C5138BDF0B5054600EB0510C0EBC511EF
:103E9000EE4885B000EB8104D4F8B01100295ED063
:103EA00028468847D4F89001002858D004F5C874F3
:103EB000002620798DF810000F208DF811008DF864
:103EC000126001278DF8137004A808F066FE2069BF
:103ED0000090207DDE4931F81000ADF80400607DCF
:103EE000091D31F81000ADF80600A07D891D31F8DC
:103EF0001000ADF808000C20ADF80C60ADF80A0019
:103F0000207A69460AF056F92068A4F5C87401229F
:103F100040F2255108F056FDCC480C3850F82510D9
:103F200051B994F88C1140F8257084F88C612846BA
:103F3000C4F8B861FFF786FF94F8A701A4F88801D8
:103F400094F89C0100280AD194F8AC014FF4447114
:103F500009F0B5FA94F8AC01002109F0DCFA05B0DB
:103F6000F0BD00EB0012C2EBC012B84800EB8200BB
:103F700090F89C21002A07D190F8AC0109B10121E9
:103F800000E0002109F0C7BA704710B50024E0B284
:103F9000FFF778FF641C032CF9DB10BD70B51546E4
:103FA0000E460246032819D202EB0210C0EBC211E2
:103FB000A64800EB8104B4F88211B4F88001814274
:103FC00001D1802007E0081A8030C11700EB516151
:103FD00021F07F01401A80B2A84201D2002070BDBA
:103FE00001211046FFF7BDFFB4F88001B4F882113B
:103FF000884203D3C0F18002AA420ADD20442A4647
:1040000031460EF0E8FFB4F880012844A4F880019E
:1040100010E0204431460EF0DEFFB4F88001C0F11C
:1040200080008119281A85B220462A460EF0D3FF57
:10403000A4F88051012240F22771D4F8900108F0D1
:10404000C1FC012070BD30B4824B012418705C703B
:1040500030BCA3E700EB0012C2EBC0107B4A00218A
:1040600002EB8000A0F88A1170472DE9F041064666
:1040700000EB0610754BC0EBC61003EB8004154631
:10408000B4F88621B4F884010F46824202D14FF47D
:1040900080710AE0111A01F580714FEAE17C01EBB1
:1040A0001C6C2CF0FF0CA1EB0C0189B2A94202D2CE
:1040B0000020BDE8F08106EB06114FF0800CC1EB4B
:1040C000C6110CEB8101904203D3C0F58072AA4265
:1040D0000BDD184408442A4639460EF07CFFB4F83C
:1040E00084012844A4F8840112E0184408443946A5
:1040F0000EF071FFB4F88401C0F58070C119281A60
:1041000085B204F180002A460EF065FFA4F88451C0
:104110003046FFF79FFF0120CBE700EB0012C2EB18
:10412000C0124A4800EB8200A0F88811A0F88A115A
:1041300070472DE9F047064600EB0610434FC0EBF1
:10414000C61007EB80048846B4F88601B4F88411E1
:10415000C0F580700844C11700EB116121F0FF0128
:10416000401A80B21546824200D3C5B2E5B30AF0C8
:10417000F1FC8146B4F88601B4F88421802106EB75
:104180000613C3EBC61301EB8301904204D23844FB
:1041900001442A46404613E0C0F58072AA42F6DC8C
:1041A0003844014440460EF016FFB4F88601C0F5CD
:1041B0008070291A0A04120C04D004F180014044D2
:1041C0000EF009FF94F886012844C0B2A4F88601D5
:1041D000B4F88411884204D10020A4F88401A4F822
:1041E000860148460AF0BAFC2846BDE8F08770B55B
:1041F000054600EB0510C0EBC511144800EB81002B
:10420000B0F88611B0F88421914236D0B0F88A31E6
:104210005B1C9BB2A0F88A31B0F88841A3422CD332
:10422000C1F580711144CA1701EB126222F0FF023E
:10423000891A8EB290F88C1131B1D0F8B801BDE86E
:10424000704001210BF024B9314605E060110020D7
:10425000E25C010810000020042008F012FF0400B6
:104260000BD0F2B204F108012846FFF762FFA570F7
:104270002046BDE8704008F01BBF70BD70B500EB74
:10428000001100F11003C1EBC0114E4800EB810496
:1042900004F5D0752A460C2118460AF037FA20B1E9
:1042A0002846FF220C210EF0A8FED4F8A001B0F59C
:1042B000E13F03D94FF41650C4F8A00194F8A411BB
:1042C0000020022901D384F8A40194F8A511032940
:1042D00001D384F8A50194F8A611032901D384F829
:1042E000A60194F8A7010221FA2801D8022801D2D8
:1042F00084F8A71170BD00EB0011C1EBC01031496B
:1043000001EB800090F88C01704700EB0011C1EBCD
:10431000C0112C4800EB8100B0F88611B0F8840180
:10432000814201D10120704700207047F8B5044652
:104330000F4600EB0410C0EBC4112248164600EBF8
:10434000810595F88C0100280FD07BB12046FFF73E
:10435000DCFF58B16A461946D5F8B8010AF0FBFFF0
:10436000324639462046FFF7E4FEF8BD324639466C
:104370002046BDE8F840DCE610B5044600EB04102A
:104380001049C0EBC41001EB8000D0F8900108F098
:1043900067FA2046BDE8104074E500EB0011C1EB60
:1043A000C011084800EB8100B0F88211B0F880011C
:1043B000081A8030C11700EB516121F07F01401ACB
:1043C000704700006011002010B50C46480702D06D
:1043D000002000F02FFBE00609D564480078C107F3
:1043E00001D1800703D5BDE8104009F03DBF10BDE5
:1043F00010B586B000244FF4E1300090ADF80840CD
:104400000C20ADF80440ADF80A00ADF80640ADF858
:104410000C406946204609F0CDFE25208DF810009D
:104420000F208DF811008DF8124001208DF8130037
:1044300004A808F0B2FB012240F225514C4808F0D4
:10444000C1FA4FF402714B480EF0DEFDAFF2870067
:104450004849C1F8040200F076FB06B010BD45499A
:1044600091F80022885401F500710878401C08700A
:104470004A6804210020104710B53D4C01462046F3
:1044800008F0ECFA4021204608F049FB0028F9D05A
:1044900010BD70B50D460646002404E0305DFFF700
:1044A000EBFF641CE4B2AC42F8D332481021D0F8E0
:1044B0000422BDE870400020104770B5BF2A11D813
:1044C0002D4B1C6822701D6809246C701C68A0703C
:1044D0001868C01C0EF07FFD28480078BDE87040C9
:1044E00000F088BA70BD4030C0B2E6E710B514469F
:1044F0000A4608B1002010BDE1B21046FFF7C9FF1F
:10450000204610BD78B91B4A92F8003292F8010299
:10451000834208D0105C087092F80102401C82F8B7
:104520000102012070470020704710B504460EF0CC
:1045300080FD2146C2B2BDE810403020BDE70FB477
:104540000F4900B5096891B0884207DC14AA684693
:1045500013990FF0B7FD6846FFF7E7FF11B05DF85C
:1045600014FB052801D2064908607047200000208E
:104570000038014094160020585D01081A00002000
:104580001400002070B50D460EF049FD002404E033
:1045900000F8014B29460EF042FD0028F8D170BD0D
:1045A00070B504680646002C1FD020460EF041FD71
:1045B00000281AD00EF002FD054600682178415C03
:1045C000C90701D0641CF9E720460EF032FD01193D
:1045D000491E002201E001F80129A14204D30B7811
:1045E0002868C05CC007F6D1346070BD70B51C4649
:1045F000154610600EF013FD206000280BD000213E
:1046000001702068401C20602846FFF7C9FF204643
:10461000FFF7C6FF012070BD2DE9FE431C46894609
:10462000022A4AD30178412947D14178542944D1FB
:1046300000268654921E12F0FF0700F1020518D0E2
:1046400028780D2815D00A2813D00822DFF8D48145
:1046500071A0082F03D329460EF016FD98B105224C
:1046600071A0052F29D329460EF00EFD00287DD01C
:1046700023E04F2189F800104B2189F801102078A0
:10468000801C187056E005F1080001AB02AA3D211C
:10469000FFF7ACFF88B10025654F08E007EB860007
:1046A000C16802980EF0CCFC50B16D1CEDB205EB68
:1046B000850637F826000028F0D1FF20BDE8FE83EC
:1046C000019801783F290BD005EB850107EB8105A7
:1046D000297A012930D0022933D0042936D038E094
:1046E00005EB850007EB800598F80000A97A814268
:1046F0001AD8687A18B14FA16B68EA680CE02A7A78
:10470000684669680EF067FC287A012806D00228FE
:1047100007D0009BEA6849A1484672E09DF8003046
:10472000F8E7BDF80030F5E746A14846EA680FF023
:10473000ADFC68E00020C1E70EF07AFD8DF80000C6
:1047400007E00EF075FDADF8000002E00EF070FD20
:104750000090687AE8B101980EF06BFC297A8842E3
:1047600003D8686801990EF086FC00E017E0A97A8A
:1047700098F800008142D7D8297A37F826006A468F
:10478000FFF7CAF82969044609B1684688472046F8
:1047900094E72A7A694668680EF01DFCE5E720A0D8
:1047A00001901FA06D1D009026212846FFF7EAFE0C
:1047B00028460EF03EFC28B1284601950EF039FC43
:1047C00005446D1C28460EF034FC18B128460095AF
:1047D0000EF02FFC01A8FFF7E3FE6846FFF7E0FEAE
:1047E0001E4801990EF02CFC28B91C480099113084
:1047F0000EF026FC58B188F8006019A1DDE90032FE
:1048000048460FF043FC21780844207092E70121CC
:1048100088F8001017A1F1E72B434F4E4649473D5A
:1048200000000000180000202B4C4F473D00000006
:10483000F45C010825733A257300000025733A25BE
:1048400075000000636F6E6669672025733A2075F6
:104850006E617574686F72697A656400F00F00208C
:104860004C4F472025732625733A204661696C65B5
:10487000640000004C4F472025732625733A2053CF
:104880007563636565640000F8B5B34D01238DF869
:104890000030B24E2868002472798178D01E212918
:1048A00034D005DC11B3012922D0202904D124E021
:1048B000222934D050293CD02968081D0EF08BFBEA
:1048C0009DF8000071790844C01E8DF80000012495
:1048D00029689DF80000087028682968807840F0F1
:1048E000800088702868C4700120F8BDF371EFE77C
:1048F00009F080FE0220F071EAE7C2B22968286858
:104900006B46091DC01CFFF787FE10E0C2B2296884
:1049100028686B46091DC01C05F00EF811E0C2B2F4
:10492000296828686B46091DC01CFFF794F90446E6
:10493000CEE7C2B2296828686B46091DC01C05F085
:10494000B1FA04460928C3D10020F8BD70B5824EE3
:104950000124002530682246817830460068401CDA
:10496000062926D004DC042907D0052904D115E046
:10497000072902D010290CD0012530680470306856
:104980003168807840F0800088703068C570012000
:1049900070BD7248C27109F033FFEEE70C21C1709F
:1049A000001D09F0BEFC30680021102441748174A0
:1049B000E3E7FEF7AFFF0EF03CFB316804460871F9
:1049C000FEF7A8FF014630682246401D0EF003FBAB
:1049D000A41CE4B2D1E760480122114603681A70B2
:1049E00002680368927842F080029A700068C17091
:1049F0000120704770B5584E0546002330681C46AC
:104A000019460078C01CC2B203E0405C4340491C18
:104A1000C9B230689142F8D383545048504B921C2D
:104A200081781970FD21817019462846FFF75EFDD7
:104A3000204670BDF8B505460024484E3DE0B179EA
:104A400031B101290CD0022916D0032935D126E035
:104A50009DF80000FE2801D0FD282ED101201CE089
:104A60009DF80000BF2801D9B47126E00221B17180
:104A70003471F470C01C7071F1789DF800004140F1
:104A8000F17035493279096888543079401CC0B2D8
:104A900030717179884210D10320B0710DE0B4718A
:104AA000F0789DF80010884207D100210B2008F013
:104AB000E8FA10B1C57008F0FBFA012269462846F1
:104AC000FFF720FD0028BAD1F8BD70B50025234CB2
:104AD0002FE010F8012BA37933B1012B08D0022B62
:104AE00010D0032B25D11EE0FE2A22D1012218E08E
:104AF000BF2A01D9A5711CE00223A3712571E570BD
:104B0000D31C6371E3785340E370134B26791B6821
:104B10009A552279521CD2B2227163799A4208D1F5
:104B20000322A27105E0A571E378934201D101202F
:104B300070BD0A00A1F1010189B2CAD1002070BD87
:104B4000064988707047054800218171C171017064
:104B50004170FD2181707047585D010819000020E7
:104B60009C18002009490AA00FF080BA70B5094DC1
:104B70000446C1B2284607F071FF4021284607F0DD
:104B8000CEFF0028F9D0204670BD00005C5D010812
:104B900025730000003801400120704738B50446F5
:104BA00009F0C7FF00221423114610460BF0AFF89E
:104BB00001226946202009F015FF9DF80020FF2AF8
:104BC0000AD04AB12146002009F089FF2146012080
:104BD00009F085FF002038BD012038BD38B541F00F
:104BE00010018DF8001040F0100015468DF80100FE
:104BF0001C4602226946102009F00FFF8DF8004084
:104C00008DF8015002226946082009F006FF38BDE0
:104C100008B500208DF8000003220DF101011820D5
:104C200009F0E0FE9DF801009DF80210000440EA42
:104C300001209DF80310084308BD0000FC4A51689C
:104C4000814201D0C2E901017047F0B5002200E0C5
:104C5000521C835C202BFBD0092BF9D0DCB22D2C0D
:104C600005D04FF0010605D02B2B03D003E04FF009
:104C7000FF36F8E7521C00236FF02F070B6007E0A8
:104C80000C68521C04EB840407EB440423440B60BF
:104C9000835CA3F13004092CF2D9DBB22E2B00D1B6
:104CA000521C01230AE00D6803EB830305EB850525
:104CB00007EB45052C445B00521C0C60845CA4F19E
:104CC0003005092DEFD908684FF47A7270430860F7
:104CD000934204D2B2FBF3F242430A60F0BDB3FB4D
:104CE000F2F2B0FBF2F00860F0BD10B501780829CF
:104CF00005D2DFE801F0041838382682426B40788C
:104D0000012801D101217FE000210420FEF7DBFF13
:104D100000210220FEF7D7FF00211BE00120FEF753
:104D2000D2FF002143E000210420FEF7CCFF012147
:104D30000220FEF7C8FF00210320FEF7C4FF012177
:104D400056E000210420FEF7BEFF00210220FEF7FE
:104D5000BAFF01210320FEF7B6FF00210846FEF747
:104D6000B2FF0021DAE701210420FEF7ACFF0021A9
:104D70000220FEF7A8FF0121DEE7407804281BD0BF
:104D80000528C1D100210420FEF79DFF012102204A
:104D9000FEF799FF00210320FEF795FF0121002077
:104DA000FEF791FF01210846FEF78DFF0121BDE8C6
:104DB00010400620FEF787BF00210420FEF783FF86
:104DC00001210220FEF77FFF00210DE0407802283C
:104DD00098D0032898D101210420FEF774FF002108
:104DE0000220FEF770FF01210320FEF76CFF002177
:104DF0000020FEF768FF012190E74078062802D0E6
:104E0000072881D17EE700210420FEF75CFF002106
:104E10000220FEF758FF00210320FEF754FF002177
:104E2000BDE770B500240546012606FA04F02842C5
:104E300004F10700C0B201D0012100E00021FEF71B
:104E400042FF641C032CF0DB70BD70B51022002102
:104E5000784808F030FD7748203805F091FE754C11
:104E6000203C206A401C02D108F03AFF2062E08D0D
:104E70004FF6FF750026A84200D1E685606A401C07
:104E800002D108F02DFF6062A06A401C02D108F038
:104E900027FFA062A08DA84200D1A685D4F8C82122
:104EA000BDE8704064A10420FFF749BB1022002137
:104EB000604808F022BD5F4810B502221021D230B0
:104EC00008F0F9FC18B961A10020FFF738FB594838
:104ED0002038B0F8F210A1F57F42FF3A02D100214C
:104EE000A0F8F21010BD534810B502221021D230A4
:104EF00008F003FD002804D1BDE8104057A1FFF7DA
:104F00001EBB10BD70B54B4D203DB5F8F240FFF70C
:104F1000D2FFB5F8F200A04204D0A5F8F240BDE8F7
:104F20007040E0E770BD10B505281BD2414A203A19
:104F300002EBC00494F8C00000F001020A4311D053
:104F4000C20702D000290DD103E011B140F00100E9
:104F500001E020F0010084F8C00021B108F0C0FE9B
:104F6000C4F8C40010BD20F0020084F8C00010BDD9
:104F7000F0B501250024264603E005EB85056D000C
:104F8000761C9642F9DB90FBF5F62A4F05FB1600DE
:104F9000603F4FF00A0EB44696FBFEF60EFB16CCB1
:104FA0000CF1300C07F804C0641C002EF3DC26461C
:104FB0004FF0200C03E007F804C0641C761C8E42FE
:104FC000F9DB002105E0661A3E4416F8016C5E54D8
:104FD000491CA142F7DB2E211955641C00210AE06F
:104FE00095FBFEF590FBF5F606F130071F55641CA6
:104FF00005FB1600491C9142F2DB00201855F0BD5C
:105000000B4601220221B3E70B4603220121AFE741
:1050100010B5044604210A2008F033F8002806D011
:10502000112181708460BDE8104008F041B810BDC6
:1050300024000020C0190020756C5546436C656142
:105040006E54696D65203D202564000072656164C1
:1050500020717477206661696C0000007772697452
:105060006520717477206661696C000070B508F086
:1050700037FEFE4BFE4C196821F007011960B3F8AA
:105080007C207ABB1A6A824212D2821AB2FBF4F2F4
:10509000B3F86050954202D841F001011960D98DF2
:1050A000B3F86220914203D3196841F001011960FD
:1050B000996A814216D2411AB1FBF4F1B3F8642027
:1050C0008A4203D8196841F002011960B3F86610EA
:1050D0009A8D01EB4101B2EB410F03D3196841F006
:1050E00002011960596A81420AD2401AB0FBF4F0F9
:1050F000B3F86810814203D8186840F004001860C3
:1051000070BD814205D9D94ABC32081A13681844C7
:1051100010607047F8B506461D460C4610460DF067
:1051200088FF0146D348406802780095407802FB2A
:105130000162204483B290B2A1B240F23F1205F066
:1051400020FAF8BD38B5CB4C1546FF2810D1FF2901
:105150000ED110460DF06DFF61680A78497852084B
:1051600050437822A2EB5102C0F1A000A2EB510102
:10517000BE4A89B280B2538B0093138B62689468E5
:105180002A46A04738BD2DE9F843B84FB74E403FF7
:105190000024B7F84300ADF800002546701DFFF766
:1051A000A4FDF078072810D2DFE800F00F0E080405
:1051B0000F0F0B0000210520FEF785FD0124254679
:1051C00003E03079052800D101244337D6F8B480B4
:1051D0007888388008207071B07108F081FDC6F8B9
:1051E000B4001CB101464046FFF78BFF45B1306863
:1051F000410505D4D6F8901011B140F480603060BC
:10520000F078002403280CD2DFE800F0020B07003E
:105210009DF8000028B1748203E001210520FEF70B
:1052200052FD308840040FD58DF8004001208DF8E4
:1052300001000B208DF80200F0788DF803000422A5
:105240006946A120FFF739F9BDE8F88310B508F0E9
:1052500016FB86480D30418801800D380A21C17344
:1052600092210174FF210173E1E67FB500240094CF
:105270000194029423460122214620460394FFF71D
:10528000ADFC00256E4609F0DDFB40B17AA101209E
:10529000FFF755F96D1C042DF5DB01200CE0FFF73D
:1052A000B7FC46F82400641CE4B2F3E756F820206B
:1052B0000099401C11440091A042F7DB1CB10098FA
:1052C000B0FBF4F000900021402301220846FFF7D4
:1052D00085FC009804B070BD7FB5002401220094C5
:1052E000019402942346214610460394FFF776FC6E
:1052F00000256E4609F0A6FB40B15FA10120FFF733
:105300001EF96D1C042DF5DB01200CE0FFF780FC7D
:1053100046F82400641CE4B2F3E756F82020009914
:10532000401C11440091A042F7DB1CB10098B0FB77
:10533000F4F000900021402301220846FFF74EFCC4
:105340000098C7E72DE9F05F80460E46002510461D
:105350000EF0DFF94A4A4B4B0EF05EF90EF016FAEA
:10536000044630460EF0C7F98346214646480DF004
:10537000BEFF0646454920460DF0BFFF31460DF001
:10538000F2FF0746002042490FF0C4FD04460E46D6
:1053900038460EF0E8F90FF0BDFD3E4A3E4B0EF0E8
:1053A00022F8224633460EF0BFF802460B46002094
:1053B0003A490EF031F94FF066394A46384B0EF053
:1053C000B3F80022374B0EF00EF80EF0DFF9064668
:1053D000264800EB8804606C0EF096F9DFF8C88070
:1053E00082464746414630460DF087FF39460DF06C
:1053F0007EFF51460DF029FF39460DF0B4FF0646F9
:1054000058460EF0B0F94A46284B0FF03BFF0246D3
:105410000B46002026490EF0FFF80EF0B7F9254F95
:105420008146BE420DDA30460EF09DF9224A234BEA
:105430000EF080F8224A234B0DF0D5FF0EF0A6F9AE
:105440000546BE4209DB30460EF08DF91E4A1F4B61
:105450000EF070F80EF09AF90546394630460DF018
:1054600046FF29460DF049FF32E00000A019002058
:1054700080510100240000204144204641494C0055
:1054800058CA32C4B12EF03F00401C4500609F4511
:105490000088C34010E0B7AF297F2A4000B4A9407C
:1054A000661271400000494000007A446666F63F8B
:1054B0000039DC400000C84192CB7F48BF7D4D3FA2
:1054C0000FD6FF39CC97673FDE718A8EE4F25F3FDB
:1054D0000EF049F90022FE4B0DF085FF05460F4600
:1054E00048460EF040F92A463B460EF023F80EF0EF
:1054F0004DF90546414630460DF0FFFE0EF01AF913
:10550000C4F89C00A06B0EF0FFF829460DF0F5FEE4
:105510000EF010F944F25061C4F89000884203DBA9
:1055200044F21870C4F89000D4F8A810814201DA4F
:10553000C4F8A800BDE8F09F10B50020FEF709FCF4
:1055400028B101210420FFF7EEFC00206FE50021C7
:105550000420FFF7E8FC012069E57047DD4A126B83
:105560000AB1DDA2EEE5DEA2FCE72DE9F041DF485D
:1055700088B0D84CD0E9021200690591CDE9062027
:10558000B4F8F20001A9FFF73BFD01A80DF051FDB1
:10559000D74F401C79680A7852085043C0F1A005E3
:1055A0004878C0F14A0601A80DF043FD7A681178E9
:1055B00001FB0058608B0090A8B29568238BB1B2B4
:1055C00001AAA8477D6805AA68788119081A618B25
:1055D0000091216B238BAC6852F8212081B208F135
:1055E0000A0080B2A04708B0BDE8F081B94810B504
:1055F000408B04F065FFBDE81040B6E72DE9F04FA1
:1056000085B0DFF8D09293460E9DD107B9F81A60A5
:105610004A46DFF8DC821C46AA4602EB800779D0B6
:1056200001282BD1D9F8300018B1022803D0B1A13C
:1056300002E0B3A100E0B5A101A80DF01CFD01A896
:105640000DF0F7FCD8F804200B30117800FB014076
:10565000B0F5A07F02DB241A04F23B140096D2F8C6
:1056600008C0A9B2A0B2002301AAE04701A80DF02A
:10567000E0FCD8F80410097800FB0144B9F86A008E
:105680000028D7F8900006D0A349032291FBF0F040
:1056900001AB012109E0B0F57A7F09DB32306421EA
:1056A00090FBF1F001AB01220221FFF761FC03E066
:1056B0009AA101A80DF0DFFC01AA9AA19A480EF068
:1056C000E5FC0096D8F80420A9B2A0B2D2F808C030
:1056D0000023954AE04794480DF0ABFCD8F804103D
:1056E0000A7800FB0244487841190D1AB9F86A009B
:1056F00090B38EA28FA18C480EF0C8FC0096D8F80B
:105700000420A9B2A0B2D2F808C00023864AE0471C
:1057100005F11E055FEA8B7019D5D7F89C0064214E
:10572000323090FBF1F0012201AB1146FFF720FC73
:1057300001AA81A17C480EF0A9FC0096D8F80420AB
:10574000A0B2A9B294680023774AA0471E3505B0DD
:10575000A5EB0A00BDE8F08FFFE779A2CAE7F8B52C
:105760005C4C07461546B4F87C000E46002864D110
:10577000607B012861D002285FD0E078012803D047
:10578000022801D0032843D194F8C000C0070CD0F0
:1057900008F0A6FAD4F8C410401AB42805D394F837
:1057A000C00040F0020084F8C00094F8C800C007B0
:1057B0000CD008F095FAD4F8CC10401AB42805D3D0
:1057C00094F8C80040F0020084F8C80094F8D000B3
:1057D000C0070CD008F084FAD4F8D410401AB428CA
:1057E00005D394F8D00040F0020084F8D00094F87B
:1057F000D800C0070CD008F073FAD4F8DC10401AB7
:10580000B42805D394F8D80040F0020084F8D800FA
:10581000E07806284FEAC57006D000280DD0032294
:105820003B460121009605E0002806D003223B46B6
:10583000002100960020FFF7E1FEF8BD70B5254E6F
:1058400014252C46708B04F03BFE326B72B1022A99
:105850000ED03DA221462846FFF774FCFFF785FED7
:10586000BDE87040032250215A2078E739A2F1E7C1
:105870003EA2EFE710B5174C608B04F021FE206BC1
:1058800060B102280CD03DA214210846FFF75AFC53
:1058900003225021BDE810405A2060E739A2F3E707
:1058A00034A2F1E710B50B4C608B04F009FE206BBD
:1058B00060B1022870D035A214210846FFF742FCDF
:1058C00001225021BDE810405A2048E762E063E021
:1058D0000000F03FA0190020CBAECFE4BFD5000000
:1058E000456D7074792054616E6B0000905D010805
:1058F00024000020BDF8CBAE2020202000000000B6
:1059000046656564202020200000000045696E6720
:10591000616E67200000000040420F00203C2031F3
:105920000000000025730000F00B0020A6CC532FD0
:10593000636D000020257300257320A1E6000000A0
:105940004DA6B82E636D0000B6A8C1BFC8A1CBAEEE
:1059500000000000566F6C756D65747269632044B9
:10596000697370656E73696E67000000566F6C75C1
:105970006D656E204175736761626500B2FA20CB78
:10598000AE00000050726F6475637400D1AD20BB2F
:10599000B7000000F2A28FE7F5A28DE710B5F84C32
:1059A000608B04F08DFD206B40B1022808D0F5A279
:1059B0001421BDE810400846FFF7C4BBF3A2F7E787
:1059C000F4A2F5E71CB5F548D0E90010CDE90010C8
:1059D00007F055FFEA490888C0F382103DF810002F
:1059E0004883487B68B1032811D0042812D00528C9
:1059F00006D1887B502810D0522801D1FFF71EFF16
:105A00001CBD887B0028FBD1FFF7C8FF1CBDFFF73A
:105A100049FF1CBDFFF72EFF1CBDFFF7E7FD1CBDB6
:105A20002DE9FF5FDFF858830E468146D8F8001055
:105A3000002401F00100C1F380021044C1F34002D0
:105A4000024498F8C000DFF858A38346C0F3400032
:105A5000024498F8C800C1F382158646C0F340009E
:105A6000024498F8D0000390C0F34000024498F834
:105A7000D8000090C0F34000104498F8E02002F0F5
:105A800001031844C1F34023184410F0FF0F7DD0E8
:105A900098F80D0005287AD0012879D0022877D00F
:105AA000072875D0082873D021F4E0710020C8F8C9
:105AB00000105FEAC17C4FF0010301AF08D08DF800
:105AC000040021F4E07101F140010120C8F8001048
:105AD0005FEA817C08D53B5421F4E07101F140017B
:105AE00000F10100C8F800104B0709D502233B5410
:105AF00021F4E07101F1400100F10100C8F800104B
:105B0000D1070BD003213954D8F8001000F101005F
:105B100021F4E07101F18001C8F800105FEA8B7197
:105B20000BD504213954D8F8001000F1010021F4FC
:105B3000E07101F18001C8F800105FEA8E710BD5A9
:105B400005213954D8F8001000F1010021F4E0716A
:105B500001F18001C8F80010039989070BD50621CF
:105B60003954D8F8001000F1010021F4E07101F17E
:105B70008001C8F80010009989070DD50721395414
:105B8000D8F80010401C21F4E07102E020E04BE066
:105B900048E08031C8F8001098F80B10B1FBF0F322
:105BA00000FB131088F80B00B8F80000C0F3821057
:105BB000A84201D0FFF706FF98F80B004546385C75
:105BC00008282FD2DFE800F0353D45515A646E7643
:105BD00098F80C00FF2802D0FF2088F80C00C806B7
:105BE00001D4084614E0B8F81A000090DAF804006E
:105BF000B1B240F23F124078304483B21FFA89F0CC
:105C000004F0BFFCD8F8000020F01000C8F8000035
:105C100020F4E070C8F80000C0F38210A84201D060
:105C2000FFF7D0FEBDE8FF9F98F80E005028F9D08E
:105C30003AE7286B18B1022801D05AA10EE05DA105
:105C40000CE0286B18B1022801D05DA106E060A12C
:105C500004E0286B38B1022805D061A164480DF03A
:105C60000AFA012432E063A1F8E7286B20B1022888
:105C700002D0AFF29C3126E063A124E0286B18B17A
:105C8000022803D063A11EE065A11CE068A11AE010
:105C9000286B18B1022803D069A114E06DA112E0AD
:105CA00071A110E0286B18B1022801D074A10AE09C
:105CB00076A108E0286B18B1022803D076A102E093
:105CC0007AA100E07EA14A480DF0D5F9E87A297B57
:105CD0003A5C4FF6E0709142296821D18A0609D5D5
:105CE0006B8B33A231464846FFF714FA286820F040
:105CF000200032E041F02001296004B9688B009057
:105D0000DAF804202B8BB1B294681FFA89F0384A74
:105D1000A0476B8B364A31464846FFF7FBF981E7CF
:105D200041F02001296004B9688B0090DAF8042062
:105D30002B8BB1B294681FFA89F02D4AA0476B8B68
:105D40002B4A31464846FFF7E5F9E87A395C297372
:105D5000401CE872286840F01000286062E70000EC
:105D6000526563697263756C6174696F6E000000DF
:105D700052657A69726B756C6174696F6E000000B0
:105D8000A0190020BECD20D0F7000000526561644C
:105D9000790000004265726569740000905D010839
:105DA00024000020C7EBB8FCBBBBB4BFBBAFD6F927
:105DB00000000000455843482E55205041434B00F9
:105DC000C7EBB8FCBBBBD7CFCDE2B5C60000000027
:105DD000455843482E5556204C414D500000000078
:105DE000C7EBB8FCBBBBB9FDC2CBD6F900000000C5
:105DF000F00B0020455843482E46494E414C204662
:105E0000494C544552000000454D505459205441CE
:105E10004E4B0000B2FACBAE3CC9E8B6A8D6B500EE
:105E200050524F44554354203C20532E502E0000D6
:105E300041555347414245203C20532E502E0000EF
:105E4000BDF8CBAE20B2FACBAE3CC9E8B6A8D6B509
:105E500000000000464545442050524F44554354ED
:105E6000203C20532E502E0045696E67616E6720DE
:105E700041555347414245203C20532E502E0000AF
:105E8000CEC2B6C83EC9E8B6A8D6B50054454D50F6
:105E9000203E20532E502E00BDF8CBAE20CEC2B6F1
:105EA000C83EC9E8B6A8D6B500000000464545443E
:105EB0002054454D50203E20532E502E000000000F
:105EC00045696E67616E672054454D50203E2053F2
:105ED0002E502E00FE484178FE484278914207D06D
:105EE000FB49026820390A6242684A6200890885D3
:105EF000704710B50346FFF7EDFF002B05D00322D6
:105F00005021BDE810405A2029E410BD10B5FFF71C
:105F10009DF9FFF738F9BDE810403FE5EC48002156
:105F20002030C173017441718171C0F8E811C0F86B
:105F3000F011EBE71FB5E64C2034608B04F0C0FA9B
:105F4000206B18B1022803D0E3A102E0E4A100E035
:105F5000E6A168460DF08FF868460DF06AF8E6494C
:105F6000401C49680A78497852085043C0F1A000A3
:105F7000C1F172016A46FFF7E5F81FBD2DE9F8434C
:105F8000D34EDFF878832036B6F87600D6F8EC11D9
:105F9000421A306B58B3022829D0D9A140460EF0DE
:105FA00075F840460DF045F8D34F401C7A6892F8DA
:105FB00000C04FEA5C0148435178C0F1A005708BE6
:105FC0000090ACEB8C007E312844D2F808C00C461F
:105FD000338B80B2CDA2E047708B00907A68214667
:105FE000338B9468A8B24246A047BDE8F883C8A1A5
:105FF000D4E710B5FFF72AF9FFF7C5F8BDE8104060
:1060000098E7B348002120300222C1730274417125
:1060100001228271C0F8EC11C0F8E811E9E710B56F
:10602000AB4C2034E07803280DD1D4E93E01814205
:106030000AD154F8B81F608F00EBC00202EB0010C9
:1060400001EB8000206010BD07F04AFED4F8B410C8
:106050008142F8D2401A34F86C1F00EB80004000F7
:1060600041433C20B1FBF0F0E16C0844E06410BD1A
:1060700010B5974C2034E078022815D107F030FE97
:10608000D4F8B41081420FD2401A34F86C1F00EBE0
:106090008000400041433C20B1FBF0F0E16C08443B
:1060A000E06407F01DFEA06410BD10B59B4807F02A
:1060B000F2FFBDE81040B2E710B5984807F0EBFFDB
:1060C000BDE81040D4E729E7AFF20500FEF7A0BF16
:1060D0001CB5FFF7BBF8FFF756F8FFF7E3FB8F4956
:1060E0001831A1F58E70CDE90001D0F8CC01AFF2E6
:1060F00027030246002107F0FEFF1CBD7448032160
:106100002030C17300210174012242718171C0F8F5
:10611000F011DDE7F2E710B5FFF70EFA6C4820301A
:1061200090F8E010C9070CD0C078022806D00328E8
:1061300007D1FFF7BAFFBDE81040DFE7FFF7BCFF6C
:10614000F9E710BD10B5624C2034206820F490505F
:10615000206007F0C5FDC4F8C8012046BDE8104026
:1061600004F044BD2DE9F843594EDFF89081203604
:1061700031463C23B1F8F410306BB1FBF3F203FB72
:10618000121350B3022828D065A140460DF07EFFBF
:1061900040460CF04EFF584F401C7A6892F800C001
:1061A0004FEA5C0148435178C0F1A005708B009024
:1061B000ACEB8C007E312844D2F808C00C46338BFF
:1061C00080B252A2E047708B00907A682146338BF0
:1061D0009468A8B24246A04707E756A1D5E72DE943
:1061E000F8433B4D2035688B04F06AF9A87B424F99
:1061F00061282FD0622868D1286B002866D0A94674
:106200000228FBD050A630460CF013FF7A68401CE1
:10621000B84611784F4649084843C0F1A005507868
:10622000C0F17204B9F81A000090D2F808C0B9F8A9
:106230001830A1B2A8B23246E047D8F80460798B92
:10624000641D7078009120443B8B81B243A2A8B2B8
:10625000B468B7E0286B00B302281ED043A63046CE
:106260000CF0E7FE7A68401CB846117849084843AC
:10627000C0F1A0075078C0F17204688B0090D2F88A
:1062800008C02B8BA1B2B8B23246E047D8F8046000
:10629000641D32A270782044B4E038A080460CF02F
:1062A000C8FE7A68401C117849084843C0F1A00430
:1062B0005078C0F17206688B0090D2F808C02B8B22
:1062C000B1B2A0B24246E04762E07CE07CE0000070
:1062D00080190020F42300205546B3E5CFB4000018
:1062E000466C757368205546000000005370756554
:1062F0006C756E672055460024000020F00B0020CE
:106300002020256420C3EB20200000002020200056
:10631000202025642053656320200000A41A00205B
:106320002020256420B7D620256420C3EB20202020
:106330000000000020202564204D696E2025642087
:106340005365632020000000496E73657274204419
:10635000756F5061636B202000000000C8BBBAF36A
:10636000B0B42053455420BCFC000000BCD3C8EBA3
:10637000C7E5BDE0BCC1202020000000496E736568
:1063800072742020202020202020202020200000A7
:10639000D7F804C0761D9CF801000644FEA2688B65
:1063A0000090DCF808C02B8BB1B2A0B2E0477F6848
:1063B000761D698B78780091304481B2A0B2BC68B8
:1063C000FAA22B8BA04710E6FDA630460CF031FE5A
:1063D0007A68401CB846117849084843C0F1A007C4
:1063E0005078C0F17204688B0090D2F808C02B8BF3
:1063F000A1B2B8B23246E047D8F80460641DEBA2FF
:1064000070782044698B009181B22B8BB8B21FE762
:10641000F04910B54A7BCA730874C87848710020E7
:106420008871FEF7B0FEFEF711FFBDE81040D6E61A
:106430002DE9F047E74C04F5A670E178814605297F
:1064400003D0BDE8F04707F026BEB4F8F40010B161
:10645000401EA4F8F400B4F8F60010B1401EA4F8F1
:10646000F600FFF77FFE94F8F800002701264FF4AE
:10647000967828B10225012821D0022845D1AAE02A
:10648000B4F8F6000028F9D100210420FDF71BFC28
:1064900001210220FDF717FC00210320FDF713FC6A
:1064A00000210846FDF70FFC01210846FDF70BFC13
:1064B00000210620FDF707FC84F8F86086E0B4F8B8
:1064C000F6000028DAD194F8F90001281ED002283D
:1064D00039D001210420FDF7F6FB00210220FDF751
:1064E000F2FB01210320FDF7EEFB00210846FDF73A
:1064F000EAFB01210846FDF7E6FB00210620FDF737
:10650000E2FB84F8F960A4F8F650E6E000210420EC
:10651000FDF7D9FB00210220FDF7D5FB0021032068
:10652000FDF7D1FB00210846FDF7CDFB002101203E
:10653000FDF7C9FB00210620FDF7C5FB84F8F950E3
:106540004FF46170C7E094F8FA00401CC0B284F8C0
:10655000FA00052820D200210420FDF7B4FB012118
:106560000220FDF7B0FB00210320FDF7ACFB00216A
:106570000846FDF7A8FB01210846FDF7A4FB002112
:106580000620FDF7A0FBA4F8F68084F8F97092A12C
:106590000420FDF7D4FFA0E001210420FDF793FBC8
:1065A00000210220FDF78FFB00210320FDF78BFB6C
:1065B00000210846FDF787FB01210846FDF783FB14
:1065C00001210620FDF77FFB84F8F85084F8F9706C
:1065D000A4F8F68081E0B4F8F60000287DD194F8A4
:1065E000F90030B1012820D002283AD0032874D114
:1065F00054E001210420FDF766FB01210220FDF794
:1066000062FB00210320FDF75EFB00210846FDF739
:106610005AFB01210846FDF756FB01210620FDF734
:1066200052FB84F8F960F02055E001210420FDF7C9
:106630004AFB01210220FDF746FB01210320FDF763
:1066400042FB00210846FDF73EFB01210846FDF70D
:106650003AFB01210620FDF736FB84F8F9503C2077
:1066600039E000210420FDF72EFB00210220FDF778
:106670002AFB00210320FDF726FB00210846FDF739
:1066800022FB01210846FDF71EFB01210620FDF734
:106690001AFB032084F8F9001E201CE000210420CE
:1066A000FDF711FB00210220FDF70DFB0021032067
:1066B000FDF709FB00210846FDF705FB002101203D
:1066C000FDF701FB00210620FDF7FDFA042084F808
:1066D000F9004FF6FF70A4F8F600B4F8F4000028B3
:1066E00008D1484607F0D7FCFFF72CFDBDE8F0477E
:1066F00062208DE6BDE8F087AFF2CB20FEF788BCC4
:10670000F8B5344D688B03F0DBFE286BD0B102285E
:106710001AD038A420460CF08CFC411C37486B8BF7
:106720004068027852085143C1F1A00241780093B9
:106730002B8B96B2C1F17201856889B22246304630
:10674000A847F8BD2EA4E5E72FA4E3E7214810B53C
:10675000C17800F59A70052903D0BDE8104007F014
:106760009ABC07F098FCBDE81040612050E6AFF2FB
:106770002300FEF74DBCF8B5164D688B03F0A0FE64
:10678000286B38B1022861D022A420460CF051FCBD
:10679000411C45E058E000006361727472696467EF
:1067A0006520616E642070696C6C00007468656EB1
:1067B00020707265737320534554206B6579000017
:1067C000496E736572742044756F5061636B20204D
:1067D0002C000000A0190020444953504C41595F3F
:1067E00055465F5355425F53544154455F323A30EA
:1067F00000000000554620C7E5CFB400240000206B
:10680000466C757368000000537075656C756E6733
:1068100000000000554620D7BCB1B8D6D00000001B
:10682000FE486B8B4068027852085143C1F1A002C8
:10683000417800932B8B96B2C1F17201856889B2C1
:1068400022463046A847F8BDF5A49EE7F8A49CE789
:106850001CB5FEF7FBFCFEF796FCFFF78CFFF84833
:10686000A0F59A71AFF2F903CDE9001047F230506C
:106870000246002107F03FFC1CBDF2480721C1730E
:10688000602101740521417106218171002180F888
:10689000F81080F8F91080F8FA10A0F8F410A0F8B9
:1068A000F610D5E71CB5FEF7D1FCFEF76CFCFFF740
:1068B00027FFFFF757FCE248E2491830AFF2C71351
:1068C000CDE900104FF47A700246012107F013FC65
:1068D0001CBDDC4807220021C273017405234371EB
:1068E000827180F8F81080F8F91080F8FA1041F6FB
:1068F000A621A0F8F410B421A0F8F610D2E710B544
:1069000007F0EEF9CF4BD3F8C82182420DD81968B1
:106910008C050AD4801ACC4AB0FBF2F0B3F874208C
:10692000824202D841F40070186010BD10B5C54C09
:10693000608B03F0C5FD206B68B102280DD0C3A2A7
:106940000A210846FEF7FEFB05225021BDE8104053
:106950005A20FEF704BFC0A2F2E7C2A2F0E710B5CA
:10696000B84C608B03F0ACFD206B68B102280BD0F3
:10697000C0A20A210846FEF7E5FB05225021BDE82A
:1069800010405A20FEF7EBBEBDA2F2E7BF48FEF76B
:106990003FBB7CB5AB4C04F5B27594F8F91094F894
:1069A000F800814233D2481C84F8F90060180921AC
:1069B00090F8F4200620802AE1730FD08121217401
:1069C00060710520A071FEF741FCFEF7DCFBFFF7CC
:1069D000C6FFCDE90045B4F872000EE080212174B5
:1069E00060710420A071FEF731FCFEF7CCFBFFF7CD
:1069F0009DFFCDE90045B4F870004FF47A7148432B
:106A0000AFF277030022114607F075FB7CBD2846E4
:106A100007F041FB8A48483007F03DFB0020FEF7B5
:106A200000FABDE87C40FFF769BBB2E77B490C3157
:106A3000096804E0814201D101207047896800297A
:106A4000F8D10020704770B5744C02460C342068B1
:106A500060B11046FFF7EAFF002824D121681368CF
:106A60000868984204DDC01A08609160226010E056
:106A700079B118460B68C31A1360886830B105688D
:106A80009D420EDD036815685B1B0360886890609B
:106A90008A6020680179BDE8704001208840FEF7D7
:106AA000C0B90146E5E770BD664A042092F8F411CA
:106AB000042908D2594B08461033195C042900D325
:106AC000042182F8F41170475E4810B5C07806289A
:106AD00008D00020FEF7A5F95948BDE8104048301D
:106AE00007F0D9BAFFF7E0FF04280ED2684A00EB9E
:106AF0004001642342F8213002EB810102230B7133
:106B00004871BDE8104008469DE710BDAFF2470050
:106B1000FEF77EBA1CB54A4C00213C3C481EC4E935
:106B20000110201F617080220A54012181230B541F
:106B300002210A54032004F8F809FFF72AFF40480D
:106B40004830AFF23703CDE90040642201211046FE
:106B500007F0D1FA1CBDFEF708BD10B5FEF776FBB5
:106B6000BDE81040FEF742BD36480521C1735021F3
:106B70000174F2E770B5334C4FF47840658B608355
:106B800003F09EFCFF210846FEF7E8FC658370BD1C
:106B900010B5FEF75BFBFEF7F6FABDE81040E9E73B
:106BA0008068002800D000477047254808B5303875
:106BB00007F071FA2348C17803290BD0403835A17A
:106BC000B0F84300ADF80000009ABDE8084004208A
:106BD000FDF7B5BC50F8F81F4160FFF720FABDE89B
:106BE0000840FFF78BBAAFF23D00FEF711BA1CB5B3
:106BF000FEF72CFBFEF7C7FAFEF720FE10492A4AE3
:106C00008039C88F504331F8482C90FBF2F00022B5
:106C1000C1E91102B43901F5827247E02400002075
:106C2000554620507265706172652E2E2E00000050
:106C3000554620426572656974656E2E2E2E0000E1
:106C4000D41A0020A019002080510100544F432085
:106C5000B3E5CFB400000000544F4320466C757379
:106C600068000000544F4320537075656C756E6763
:106C700000000000544F4320D1F5BBAF00000000DE
:106C8000544F43204F786964617465002B6A000893
:106C9000F01B0020696E636F7272656374207374F9
:106CA0006174653A20256400C0270900AFF2C9036A
:106CB000CDE900120246002107F01DFA1CBDFA487A
:106CC00008B5C078022810D0F84807F0E4F9F64873
:106CD0004038B0F84300ADF80000AFF24801009A28
:106CE000BDE808400420FDF72ABCBDE80840FFF7D6
:106CF000BFB9AFF23500FEF78BB91CB5FEF7A6FAA7
:106D0000FEF741FAFEF7B6FDE848E749AFF21D038A
:106D1000CDE900104EF660200246012107F0EBF9A4
:106D20001CBD10B5FEF708FCDF49002240B104206D
:106D3000C8730A74022048718A71BDE81040DCE70C
:106D4000CA73012008744A718A71BDE810401FE7B8
:106D500010B5D54C608B03F0B3FB206B40B102281B
:106D600008D0D3A2FF21BDE810400846FEF7EAB9DB
:106D7000D1A2F7E7D4A2F5E710B5FEF767FAFEF760
:106D800002FABDE81040E3E72DE9F843C64EDFF80C
:106D900048833146306BB1F8F42068B302282BD019
:106DA000AFF6A42140460DF071F940460CF041F9D0
:106DB000CA4F401C7A6892F800C04FEA5C01484311
:106DC0005178C0F1A005708B0090ACEB8C007E3147
:106DD000338B2844D2F808C00C4680B2AFF6D422D8
:106DE000E047708B00907A682146338B9468A8B294
:106DF0004246A047BDE8F883AFF6EC21D2E7F8B5EC
:106E0000A94D688B03F05CFBA87B9028286B1CD0F5
:106E100010B3022820D0B2A420460CF00AF9411C7D
:106E2000AE484068027852085143C1F1A00241784F
:106E30007823A3EB51016B8B00932B8B96B2856863
:106E400089B222463046A847F8BD18B1022801D0C1
:106E5000A6A4E1E7A8A4DFE7ACA4DDE7B048FEF70D
:106E6000D7B81CB5FEF7F2F9FEF78DF9FFF7C7FFAB
:106E70008E488D499030AFF21B03CDE900104FF4DE
:106E80007A700246012107F036F91CBD864810B51C
:106E90000821C1739121017407214171032181717E
:106EA0000A21A0F8F410FFF7DCFFBDE810406BE703
:106EB00070B57D4C04F5CA75E078072804D02846E3
:106EC000BDE8704007F0E7B8B4F8F41011B1491EFE
:106ED000A4F8F410FFF758FFB4F8F40000280CD120
:106EE0002079032802D0BDE87040CFE7284607F09C
:106EF000D2F8BDE87040FFF711B870BD6A4810B510
:106F00000821C1739021017407214171022181710F
:106F1000B421A0F8F410FFF7A4FFBDE8104033E758
:106F2000F8B51C4617460D46064606F0D9FE5E49E2
:106F30000A6A801A7B4AB0FBF2F0B1F86020121A9C
:106F4000086B80B102280ED0CB8D77A162480DF07E
:106F50009DF8624A0094A9B25268B0B23B46946868
:106F60005D4AA047F8BDCB8D74A1EFE7F8B51C468C
:106F700017460D46064606F0B3FE01464A48426AE9
:106F8000891A684AB1FBF2F1B0F86820006B521A16
:106F900078B102280DD06FA14F480DF077F84F4A15
:106FA0000094A9B25268B0B23B4694684A4AA047DE
:106FB000F8BD6CA1F0E7F8B51C4617460D4606462D
:106FC00006F08EFE38498A6A801A564AB0FBF2F003
:106FD000B1F86420121A086B062390B1022810D071
:106FE000888D65A1B0FBF3F33B480DF04FF83B4AA9
:106FF0000094A9B25268B0B23B469468364AA047A2
:10700000F8BD888D62A1B0FBF3F3EDE72DE9F04107
:10701000254F86B01C4690460D460646B7F86C00D4
:1070200001AB02220121FDF7A3FF3A6B92B1022AC4
:1070300010D001AA5BA128480DF028F8274A009437
:10704000A9B25268B0B243469468234AA04706B03A
:10705000BDE8F08101AA58A1EDE7F8B5064612484F
:107060000D461C46016BB0F86A00174621B1022993
:1070700002D040B1544A08E008B1534A01E0524AF4
:10708000143252A102E0504A143253A112480CF0BB
:10709000FDFF124A0094A9B25268B0B23B46946810
:1070A0000D4AA047F8BD0000A0190020A41A002036
:1070B000D0B920D1B9000000507265737375726544
:1070C0002052656C69656600447275636B2061626D
:1070D0006C617373656E0000F00B002024000020CB
:1070E000C5C5C6F8BDD7B6CE20320000C5C5C6F8A6
:1070F000BDD7B6CE20310000446567617373696EF9
:107100006720537461676520310000004465676142
:107110007373696E672053746167652032000000E5
:10712000B16E000880510100B4BFBBAFD6F93A255B
:107130006420CCEC202564C9FD2020005041434B45
:107140003A256420444159532025644C20202020B6
:1071500000000000B9FDC2CBC6F73A256420CCEC94
:107160002020200046494C5445523A256420444191
:107170005953202020000000D7CFCDE2B5C63A25D4
:107180006420CCEC20256420D0A1CAB120200000CE
:1071900055563A25642044415953202564487220AD
:1071A00020200000C1F7CBD93A257320C9FD2FB7A5
:1071B000D6D6D32020000000464C4F573A257320E6
:1071C0004C2F6D696E2020002C590008554E4954F3
:1071D0003A25732020202000B5A5CEBB3A25732088
:1071E000202020002DE9F84F1E46814612F806B0F7
:1071F0000020DDF82CA0DFF8488490551546CDF826
:1072000000A0D8F804200C4689B297681FFA89F0CC
:107210002A460A9BB84728460BF00BFFD8F80420F3
:10722000A1B2137800FB03970A980090D2F804C02B
:10723000B8B253465A46E047D8F8041035441FFA0E
:1072400084FC0878CDF800A007448E686A1CB8B2A8
:1072500061460A9BB047FB486A1C2146838B01B0FC
:107260003846BDE8F04FFDF755BF2DE9FC5F1D46E0
:10727000814612F805A00020DDF838B0F04F5055D7
:107280001446CDF800B07A68884689B296681FFA2D
:1072900089F022460D9BB04720460BF0CAFE796864
:1072A0005B460A7804F805A000FB02990C9804EBF1
:1072B000050A2E180020A15D0191A0550D9800909F
:1072C0007A681FFA88F11FFA89F095685246A84734
:1072D00050460BF0AEFE79683219097800FB019038
:1072E0000199A155CDF800B07B681FFA88F180B2F2
:1072F0009C680D9BA047BDE8FC9F2DE9F043064626
:10730000D1A01C4691460D4690E80E0089B0C06899
:10731000DFF83083CDE90630CDE90412D8F830002B
:10732000A8B3022834D0CCA1CD480BF0A4FEC44FA2
:107330000094A9B27A68B0B24B46D2F808C0C84AE5
:10734000E047C7480BF075FE7968097800FB0166D5
:10735000BC481638C17990F802C0437802788DE8AD
:107360000E1083798288BFA1BD480CF08FFE98F87B
:1073700009000E280ED2CDE9009404A9B84A0B5C8E
:1073800029463046FFF72EFF09B0BDE8F083FFE73E
:10739000BCA1C9E700947A68A9B2B0B294684B4620
:1073A000AF4AA047F0E7F8B50646A6481C46174680
:1073B000006B0D4618B1022803D0B4A102E0B8A1B9
:1073C00000E0BEA1A6480BF056FE9D4A0094A9B26B
:1073D0005268B0B23B469468A14AA04762E6F8B54D
:1073E000064698481C461746006B0D4618B1022801
:1073F00003D0B9A102E0BAA100E0BFA198480BF008
:107400003AFE8F4A0094A9B25268B0B23B469468E3
:10741000934AA04746E6F8B506468A481C461746F2
:10742000006B0D4618B1022803D0BAA102E0BBA13F
:1074300000E0BDA18A480BF01EFE814A0094A9B26B
:107440005268B0B23B469468854AA0472AE62DE9C7
:10745000FF4F7C4E804685B0306B1D460C4618B100
:10746000022803D0B3A102E0B5A100E0B8A17C4896
:107470000BF001FEDFF8C8B10095B17ADBF80430FB
:10748000DFF8DCA11FFA88F001EB0A029F68A1B2C5
:10749000D946079BB847B17A01EB0A000BF0C9FD4A
:1074A000D9F804104FF064090A7802FB0087B6F897
:1074B0006A000028D6F8940045D0A94901AB91FB99
:1074C000F0F003220121FDF753FDA64B01AAA6A16E
:1074D00063480CF0DBFD0095DBF80420A1B2B8B2E4
:1074E000D2F808C0D8465E4A079BE0475C480BF0DC
:1074F000A0FDD8F80410012201AB097801FB007748
:10750000D6F8A0001146323090FBF9F0FDF730FDBF
:1075100001AA97A152480CF0B9FD0095D8F80420B3
:10752000A1B2B8B2D2F808C04D4A079BE047A6F80E
:10753000FE71A6F800420798A6F80202A6F80452C7
:1075400009B0BDE8F08F323090FBF9F0012201ABB9
:107550000221B8E7F8B506463A481746394A006BA3
:107560001C460D46803218B1022803D082A102E0E9
:1075700084A100E087A13A480CF088FD304A0094CD
:10758000A9B25268B0B23B469468354AA04789E533
:107590002C49487B01280BD1B1F8FE01A0F57F42B0
:1075A000FF3A05D001F500718B884A8809884EE7BB
:1075B00070472DE9F84F07460520002693468A4676
:1075C00005463446009006F083FB1E487549163880
:1075D0004FF6FF790A6802604A68426009890181B2
:1075E000484602F06DFFDFF85C80002188F80770E4
:1075F00088F809A088F8F0B088F80A10A8F8FE9179
:10760000A8F80092A8F80292A8F80492CBF1080A10
:1076100048F21F491BE106EB0B0008280ED2DFE8F9
:1076200000F004CBD9EFFDECEBEAB8F87C1029B9F7
:10763000B8F81C30BE4202D14A46B7E005E1B3E0DB
:1076400024000020A01900200001020305060809FB
:107650000B0C0E0F11120000CAB1BCE43A0000007E
:10766000F00B0020253034642D253032642D253078
:10767000326420253032643A253032643A25303283
:107680006400000054494D453A0000004C414E470B
:10769000554147452FD3EFD1D43AD6D0CEC40000C0
:1076A0004C414E47554147452F5350524143484561
:1076B0003A454E474C495348000000004C414E4764
:1076C000554147452F535052414348453A4445554B
:1076D0005453434800000000C7E5CFB4205546008E
:1076E000434C45414E2055462F444953494E46454B
:1076F0004354494F4E0000005245494E4947554EAC
:10770000472055462F444553494E46454B54494F13
:107710004E000000B3E5CFB420554600464C55530B
:107720004820554600000000535055454C554E47E3
:1077300020554600BDF8CBAECBAED6CA3A0000000D
:1077400046454544205155414C4954593A000000A2
:1077500045494E47414E4753574552543A00000061
:1077600040420F002C59000825732025732000008B
:10777000257320A1E6202000D0F2C1D0BAC53A2559
:107780007300000053455249414C204E4F3A257337
:107790000000000053455249454E4E554D4D45524F
:1077A0003A257300F4230020B8F8182029460098E1
:1077B000FFF7B6FB002141E0B8F81C30BE4201D112
:1077C0004A4601E0B8F8182029460098FFF7CEFB9A
:1077D000012133E0B8F87C10B9BBB8F81C30BE42C8
:1077E00001D14A4601E0B8F8182029460098FFF771
:1077F000E2FB022122E052E043E034E00EE0FFE74A
:10780000B8F81C30BE4201D14A4601E0B8F8182051
:1078100029460098FFF7FAFB03210FE0B8F87C1027
:1078200099B9B8F81C30BE4201D14A4601E0B8F817
:10783000182029460098FFF710FC042108EB0400EB
:10784000641C80F8E810E4B21835761CF6B2504695
:10785000BAF1090F00DD0920B0423FF7DCAE88F82D
:107860000840BDE8F88FB8F81C30BE4201D14A4646
:1078700001E0B8F8182029460098FFF73EFD0521E1
:10788000DCE7B8F81C30BE4201D14A4601E0B8F846
:10789000182029460098FFF786FD0621CEE7B8F8A4
:1078A0001C30BE4201D14A4601E0B8F818202946F2
:1078B0000098FFF74FFE0721C0E710B5FDF7C6FCA3
:1078C0000022BDE81040FF21104672E6FE4801216B
:1078D000C17300210174F0E72DE9F0430746FBA0D6
:1078E00087B00068DFF8E083069008EB87009946D0
:1078F00015460E460E9C806B02AB03220121FDF75C
:1079000037FBD8F8300018B1022804D037B109E0AD
:1079100047B9EFA103E02FB9F1A100E0F4A1F848C5
:107920000BF0A9FBF74F0094A9B27A68B0B24B46AE
:10793000D2F808C0F24AE047F1480BF07AFB7968C8
:1079400002AA097800FB0166EFA1ED480CF09EFB4E
:1079500098F8090004280AD2CDE9009406A9E84A5B
:107960000B5C29463046FFF73DFC07B00DE500945F
:107970007A68A9B2B0B294684B46E14AA047F4E7EE
:107980002DE9F0430746D1A087B00068DFF83883BF
:10799000069008EB8700994615460E460E9C406CF3
:1079A00002AB03220121FDF7E3FAD8F8300018B149
:1079B000022804D037B109E047B9D4A103E02FB9B8
:1079C000D6A100E0D9A1CE480BF055FBCD4F0094D5
:1079D000A9B27A68B0B24B46D2F808C0C84AE047AC
:1079E000C7480BF026FB7968097800FB016602A9FD
:1079F000C3480BF040FB98F80900042809D2CDE9F0
:107A0000009406A9BE4A0B5C29463046FFF7EAFB04
:107A1000ABE700947A68A9B2B0B294684B46B84A12
:107A2000A047A2E72DE9FE4F0446C4A0DFF898A2C4
:107A30000C9E006802908846DAF830001D46174612
:107A400048F21F4118B1022801D044B10BE08D4229
:107A500002D144B9BAA103E02CB9BBA100E0BDA199
:107A6000A7480BF008FBDFF89CB20096B9B2DBF830
:107A700004201FFA88F0D946D2F808C02B46A04A45
:107A8000E0479F480BF0D5FAD9F80410D1460A78A0
:107A9000B3A100FB02880AEB4400583083880288B7
:107AA00097480CF0F3FA99F8090004280AD2CDE9B6
:107AB000005602A9924A0B5C39464046FFF792FBFA
:107AC000BDE8FE8F0096DBF80420B9B21FFA88F0FB
:107AD00094682B468A4AA047F2E72DE9F0437A4F93
:107AE000044685B0154607EB840099460E460122F0
:107AF000DDF83080006D01AB1146FDF739FA386BC7
:107B000018B1022801D024B108E03CB901AA9BA118
:107B100001E001AA9FA17A480CF0B8FA794ACDF8A1
:107B20000080A9B25268B0B24B469468744AA0472C
:107B300005B02AE42DE9FF4707469CA00E46D0E990
:107B40000010614CCDE90210206B1D46914630B308
:107B5000022824D097A16A480CF098FADFF8A48193
:107B60000095B1B2D8F80420B8B24B46D2F808C09C
:107B7000634AE04762480BF05CFAD8F804100978D1
:107B800000FB0177607A0728206B20D248B1B4F857
:107B90006230B4F86020022817D08AA106E08DA1D7
:107BA000D9E7B4F86230B4F860208EA154480CF0E4
:107BB0006DFACDE90095607A02A9514A0B5C314615
:107BC0003846FFF70FFBBDE8FF878AA1EEE738B123
:107BD00004F1600402286388228806D089A105E0A8
:107BE00060348CA16388228800E08EA144480CF0A8
:107BF0004DFA0095D8F80420B1B2B8B294684B465B
:107C00003F4AA047DFE7F8B50D4606462E482E4905
:107C10001746006BB1F868201C4618B1022803D043
:107C200084A102E089A100E08EA135480CF02EFA73
:107C3000344A0094A9B25268B0B23B469468304AC4
:107C4000A04703E42DE9FF47064658A00D46D0E9BA
:107C500000101D4FCDE9021092463A6B1C460DF103
:107C60000809012A08D103204B46195C891E1954C2
:107C7000401CC0B20728F8D3B8460AB3022A1FD066
:107C80007EA11F480CF002FA1E4F0094A9B27A6838
:107C9000B0B25346D2F808C0194AE04718480BF072
:107CA000C8F97968097800FB016698F80900072887
:107CB000D8F8300006D220B10228B8F86630E5E0E6
:107CC000E9E0EAE0FFE00000A01900200002030460
:107CD00043454C4C20434F4E53542020203A000043
:107CE0005A454C4C204B4F4E53542020203A000014
:107CF000B5E7BCABB3A3CAFD20202020203A00008A
:107D0000F00B0020240000202573000054454D5046
:107D100020434F4E53542020203A000054454D50EC
:107D2000204B4F4E53542020203A0000CEC2B2B90F
:107D3000CFB5CAFD2E202020203A000004050B0CF0
:107D400054454D503A00000054454D502E532E508E
:107D50003A000000CEC2B6C8C9E8B6A83A00000092
:107D60004D41582025303264204D494E2025303277
:107D70006420A1E6202020202020000050524F4403
:107D8000205245532E532E503A25734DA6B82E63DC
:107D90006D000000CBAED6CAC9E8B6A82020203AB4
:107DA0002573204DA6B82E636D0000000001020867
:107DB000090A0B00B4BFBBAFD6F9CAD9C3FC203A3D
:107DC000000000002530336420CCEC202025303426
:107DD00064C9FD005041434B20204C494645203AA0
:107DE00000000000253033644441595320253034CD
:107DF000644C00002530336454414745202530341D
:107E0000644C0000256420CCEC20202564C9FD20B2
:107E1000202020002564444159532025644C202013
:107E2000202000002564544147452025644C202033
:107E300020200000B9FDC2CBC6F7CAD9C3FC203A46
:107E4000256420CCEC2020202000000046494C5422
:107E50004552204C4946453A256420444159532017
:107E60002020200046494C544552204C4946453A72
:107E7000256420544147452020202000D7CFCDE263
:107E8000B5C6CAD9C3FC203A00000000B8F8642087
:107E900017D0ECA106E0EFA1F3E6B8F86630B8F829
:107EA0006420F0A1F3480CF0F1F8CDE900A498F8B3
:107EB0000910F04A304619F801302946FFF792F9C7
:107EC00081E6EDA1EEE738B1B8F86630B8F8642085
:107ED000022807D0ECA106E0B8F86630B8F86420B4
:107EE000EDA100E0F0A1E3480CF0D0F800947A682E
:107EF000A9B2B0B294685346DE4AA04763E6F8B52B
:107F00000D460646EC48EC491746006B4A6B1C468A
:107F100018B1022803D0E9A102E0EFA100E0F5A129
:107F2000D4480CF0B3F8FA4A0094A9B25268B0B23F
:107F30003B469468CF4AA04783E6F8B50D4606460F
:107F4000DD48DD491746006BB1F874201C4618B1B6
:107F5000022803D0EFA102E0F5A100E0FBA1C54893
:107F60000CF094F8EA4A0094A9B25268B0B23B46C9
:107F70009468C04AA04764E6F8B50D460646CE4868
:107F8000CD491746006BB1F876201C4678B102281F
:107F90000FD0F5A1B7480CF079F8DD4A0094A9B2EA
:107FA0005268B0B23B469468B24AA04749E6F4A191
:107FB000F0E7F9A1EEE7F8B50D460646BE48BE4922
:107FC0001746006BB1F878201C4678B102280FD014
:107FD000F7A1A8480CF05AF8CD4A0094A9B252680B
:107FE000B0B23B469468A34AA0472AE6F7A1F0E75F
:107FF000FDA1EEE72DE9F74F804682B0052005464A
:10800000002601900F4634464FF6FF7002F058FAF2
:10801000DFF8A49248F21F4A89F8078089F80970AE
:10802000049989F8F010002189F80A100498C0F129
:10803000080BA1E004983718082F6ED2DFE807F08C
:108040000417314456667585B9F87C10002964D14F
:10805000B9F81C000090464501D1534601E0B9F83B
:10806000183078082A460199FFF736FC14E0B9F871
:108070007C0000287ED1781EB9F81C10009146457E
:1080800001D1534601E0B9F8183000EBD070401030
:108090002A460199FFF774FC09EB040080F8E870A8
:1080A00065E0B9F87C10002964D1B9F81C00009093
:1080B000464501D1534601E0B9F81830B81E2A46AA
:1080C0000199FFF7AFFCE7E7B9F87C1029BBB9F8D5
:1080D0001C000090464501D1534601E0B9F8183024
:1080E000F81E2A460199FFF7F8FCD5E7B9F87C009D
:1080F0004F4690B9BB8B464501D1524600E03A8BC2
:1081000029460198FFF716FD04202DE0B9F81C3030
:108110004F46464502D1524601E02BE03A8B2946B4
:108120000198FFF770FD05201EE0B9F87C004F466E
:1081300000BBBB8B464501D1524600E03A8B294635
:108140000198FFF77FFD06200EE0B9F87C004F464E
:1081500080B9BB8B464501D1524600E03A8B294697
:108160000198FFF7CCFE0720391981F8E800641C5C
:10817000E4B21835761CF6B25846BBF1090F00DDA3
:108180000920B0423FF756AF89F8084005B0BDE876
:10819000F08F10B5FDF75AF80022BDE81040FF211E
:1081A000104627E744480221C17300210174F0E71B
:1081B00070B50C46B8B1404D01281AD0022827D01E
:1081C00003283CD105F029F8012C38D10C2837D0F0
:1081D0000620E8730020287404216971A871BDE8A5
:1081E0007040FEF7C9BD012929D1BDE87040FEF7F6
:1081F00098BD05F012F8012C21D1062803D0BDE866
:108200007040FDF77BBF95F8C40140F0040013E017
:1082100005F003F8012C12D1062809D00C2810D043
:108220000520E87350202874BDE87040FEF795BC27
:1082300095F8C40140F0020085F8C401E2E0F3E0E3
:10824000E9E0E3E025303364CCEC2025303464D021
:10825000A1CAB100555620204C4946452020203A5D
:108260000000000025303364444159532025303448
:1082700064487200F00B00202530336454414745B8
:1082800020253034644872002564CCEC202564D06D
:10829000A1CAB12020000000256444415953202583
:1082A0006448722020202000256454414745202541
:1082B0006448722020202000A0190020D1ADBBB757
:1082C000CAB1BCE42020203A256420B7D6D6D320FA
:1082D00020202020000000005245434952432E2018
:1082E0002020203A2564206D696E20202020202047
:1082F0000000000052455A49524B2E202020203ABF
:108300002564206D696E20202020202000000000C0
:1083100024000020554620C7E5CFB4D6DCC6DA3AA3
:1083200025642020CCEC20202020202020202000AC
:10833000554620444953494E46454354494F4E3AC9
:1083400025642044415953202020200055462052C6
:1083500045494E4947554E472E3A256420544147DA
:108360004520202020202000B3E5CFB4CAB1BCE4D2
:108370003A256420C3EB202020202020200000008C
:10838000554620464C555348203A25642073656372
:1083900020202020202000005350454C554E4720DF
:1083A0003A256420736563202020202020000000EF
:1083B000D7D4B6AFB3E5CFB4CAB1BCE43A25642094
:1083C000B7D6D6D320202020202020004155544F5E
:1083D0002E20464C555348203A2564204D696E2086
:1083E00020202020200000004155544F2E205350C3
:1083F00055454C554E473A2564204D696E20202046
:1084000020202000BDE87040FFF760BA95F8C40155
:1084100040F0080003E095F8C40140F0040085F83E
:10842000C401BDE87040BDE670BD08B1022803D1AB
:10843000012901D1FDF772BD704710B5FDF77CF839
:10844000F949002278B1B1F8F200A8B10520C8734B
:1084500052200874032048718A71FEF7C8FBBDE8FA
:108460001040FCF74FBDCA73012008744A718A712D
:10847000BDE81040FEF78CBBBDE81040FDF73EBEE6
:10848000E0B1E94B0128B3F8F2200CD0022812D059
:10849000032817D1002A15D0012913D1521EA3F8A1
:1084A000F220FDF762B840F2E73082420AD2012999
:1084B00008D1521CF3E7012904D1BEE7012901D1FB
:1084C000FEF72FBC7047704710B548B102280FD196
:1084D00001290DD1FDF7E9FDBDE81040FDF70EBE05
:1084E000012905D1FDF7E1FDBDE81040FEF719BCFB
:1084F00010BDCD4A927B502A04D0512A03D0522A73
:1085000001D1E1E7BCE7704710B5002807D1012988
:1085100005D1FDF7D1FDBDE81040FDF7EFBD10BD61
:10852000C14A927B002A00D1EEE77047020010B5E5
:10853000BE480BD0012A11D0022A17D1012915D12A
:1085400005F0A9FDBDE81040FEF70EBB01290DD1D5
:1085500005F0A1FDBDE81040FEF7E3BB012905D100
:1085600005F099FDBDE81040FDF7D8BC10BDAE4A3E
:10857000927B002A00D1D9E770477047032803D1C6
:10858000012901D1FDF7CABC7047A74A927B002A96
:1085900000D1F3E7704703280BD1012909D1A24884
:1085A000807B612803D0622803D1FEF7A7BCFEF7C9
:1085B00090B970479C4A927B612A01D0622A00D10F
:1085C000E9E770472DE9F041974D0527E87995F8DF
:1085D000F0104218521C082A01D3002206E0421C67
:1085E000092A09D30931CAB285F8F020BDE8F04163
:1085F000FF210020FEF7DDBFFF228C4C6A720022B3
:10860000343CAA7200EB400110F804C086480526ED
:1086100006EBC101028B808BBCF1080F2CD2DFE886
:108620000CF004090E13181D222703463846FEF7E6
:1086300077FC21E003463846FEF798FC1CE0034631
:108640003846FEF7B8FC17E003463846FEF7DEFC76
:1086500012E003463846FEF700FD0DE003463846BB
:10866000FEF74BFE08E003463846FEF79CFE03E0AB
:1086700003463846FEF76EFFE879297A401CB0FBC6
:10868000F1F201FB1200C0B2E87100EB4001005DA5
:1086900006EBC10148F21F42082835D2DFE800F09E
:1086A000040A10161C22282EAB8B3846BDE8F04178
:1086B000FEF736BCAB8B3846BDE8F041FEF756BC42
:1086C000AB8B3846BDE8F041FEF775BCAB8B384646
:1086D000BDE8F041FEF79ABCAB8B3846BDE8F041EF
:1086E000FEF7BBBCAB8B3846BDE8F041FEF705BEDC
:1086F000AB8B3846BDE8F041FEF755BEAB8B384634
:10870000BDE8F041FEF726BFBDE8F08110B505F0E9
:10871000E7FA454908620020C88510BD10B505F08C
:10872000DFFA4149486210BD10B505F0D9FA3E495B
:1087300088620020888510BD3B4A0328B2F86C107F
:1087400007D040F2E730814202D2491CA2F86C10F7
:1087500070470029FCD0491EF8E708B534A000682E
:1087600000903148016B1DF80110016308BD2E49CE
:10877000B1F86A0018B10020A1F86A007047012022
:10878000FAE7F0B5284D8FB00128697A2BD00E2971
:1087900031D22848A5F1160490E80E00C068CDE952
:1087A0000412CDE90630E079A378627821788DE86B
:1087B0000F002049A379A2881C311F480BF066FCEA
:1087C0002868302140F0080028606A7A3125171F98
:1087D000194804AE092F52D2DFE807F00F153036E2
:1087E0004B514B514B00491CC8B20E21B0FBF1F26A
:1087F00001FB120068720FB0F0BD9DF81420835C7D
:10880000312B3AD23DE09DF81420825C302A05D00D
:108810009DF81520835C322B2FD232E09DF8151085
:10882000425C392A20D021E0A0190020BC1A002087
:108830000102000048760008F00B00209DF8162089
:10884000835C332B19D21CE09DF81620825C302A01
:1088500005D09DF81720835C392B0ED211E09DF8CE
:108860001710425C392A01D345540CE0521C425483
:1088700009E0B25C835C352B03D3815403E0B25C26
:10888000E9E75B1C83540DAB0CAA0BA90AA88DE881
:108890000F0009AB08AAFE49FE480AF005FC08983B
:1088A000A0800998A0710A98E0710B9820700C982C
:1088B00060700D98A0709EE7032801D1FDF7DDBF21
:1088C0007047032801D1FDF79CBB7047032805D1F1
:1088D000F148817A491C01F00701817270472DE946
:1088E000F041ED4C052648F21F47E17901EB4102CA
:1088F00006EBC20504F1E802895C07294FD2DFE8E4
:1089000001F004101C263A443000032847D1FFF739
:10891000FDFEA38B3A4629463046BDE8F041FEF7FE
:10892000FFBA03283BD1FFF7F9FEA38B3A4629464D
:108930003046BDE8F041FEF719BBFFF7F5FEA38B0B
:108940003A4629463046BDE8F041FEF734BBFFF712
:10895000F3FEA38B3A4629463046BDE8F041FEF7C8
:1089600055BBFFF7FAFE94F8F020617AE079BDE894
:10897000F041FEF71EBEFFF7FAFEA38B3A462946EA
:108980003046BDE8F041FEF768BBFFF7FAFEA38B67
:108990003A4629463046BDE8F041FEF7AEBCB3E6A4
:1089A00070B5BE4CBC484C22216830308031064640
:1089B0000AF054FB002813D04FF420752A46B5481E
:1089C00021680AF008FBB3484C22314680300AF097
:1089D00002FB2A46BDE87040AE49B148FAF7E7BF4E
:1089E00070BD1CB5FFF7DCFFAB49086802070ED568
:1089F00020F008000860A1F1160082784178CDE9E6
:108A000000120378C2798179808804F0B5FFFCF701
:108A10004DFABDE81C40FCF729BBF0B49E4C002386
:108A2000B4F87C0000283AD12046D4F8B820D0F819
:108A3000BC104FF6FF7752B34FF47A75B2FBF5F0E6
:108A400058B105FB1022C4F8B820E28DBD1A85424A
:108A500003D30244E2854FF001032288520404D577
:108A6000D4F82C221044C4F82C0299B14FF4167299
:108A7000B1FBF2F070B102FB1011C4F8BC10A18D73
:108A800005467A1A824205D34819A08504E00029D8
:108A900005D0EBE7002B02D0F0BCFCF707BAF0BC26
:108AA000704770B57C4D0446012808D0022C13D0C5
:108AB000032C26D1012924D1BDE870400FE70129FC
:108AC0001FD104F0AAFB062801D02046F4E795F850
:108AD000C40140F004000CE0012912D104F09DFB18
