:020000040800F2
:10000000D8430020A9AC000801040008030400083C
:1000100005040008070400080904000800000000A7
:100020000000000000000000000000000B040008B9
:100030000D04000800000000E7CB00080F040008D2
:10004000D3AC0008D3AC0008D3AC00089904000876
:10005000D3AC0008D3AC00086107000873070008A0
:100060008507000897070008A9070008D3AC000817
:10007000D3AC0008D3AC0008D3AC0008D3AC000864
:10008000D3AC0008D3AC0008D3AC00083704000898
:10009000390400083B0400083D040008510600082C
:1000A000D3AC0008D3AC0008D3AC0008BD040008F2
:1000B000F504000869050008DD050008D3AC000858
:1000C000D3AC0008D3AC0008D3AC0008350400085A
:1000D000330400086D04000891040008950400082A
:1000E000C7060008D3AC0008D3AC0008DFF80CD07A
:1000F00011F040FC0048004753030008D84300209B
:10010000704770470BF0F1BB704770477047A54AC6
:1001100010B51068401C10600A2819D1002010602A
:100120005068401C6421B0FBF1F3506001FB1300E8
:1001300010B99068401C90600AF0EEFE0CF048F890
:100140000024204601F05BF8641CE4B2032CF8D3D1
:1001500010BD9449496808448142FDDB704710B5E1
:1001600000F075FEBDE8104007F059B810B5807872
:1001700020B1022809D003280AD102E0FFF7EFFFDF
:1001800006E0002000F004FE02E0002000F02CFE5B
:10019000002010BD70B50446012000F003FE824926
:1001A0000020824D0870E078287081480168497805
:1001B000092909D00D2913D001F00BFC10B12878C2
:1001C00001F016FC002070BD01688978090604D58D
:1001D000A179006807F002FBF4E701F05DFBEDE7B1
:1001E00001F0BCFBEAE708B529208DF800000020EB
:1001F0008DF8010068460BF0A4F82A208DF8000065
:1002000001208DF8010068460BF09BF82B208DF83B
:10021000000002208DF8010068460BF092F82C20B7
:100220008DF8000003208DF8010068460BF089F876
:1002300008BD10B5022001F09CF90BF0D9FA00F0CE
:100240002FFD00F07DFD00F0EFFD002000F0F8FD37
:1002500000F092FD00F0BCFD01F0D2F80BF021FCA3
:100260000BF06CFD0CF010FA20B152A1002001F04F
:100270006EF901E000F060FB0BF008F8FFF7B3FF48
:100280000CF06EFB002001F087FC18B14DA100209E
:1002900001F05DF907F011FF07F0C0FD0BF00CFB5A
:1002A0004FF6FF736422022100200AF004FEBDE82D
:1002B0001040012000F0A2BD10B5817821B10129C4
:1002C00007D0112905D102E0FFF7B3FF01E004F0E8
:1002D00071F8002010BD10B58178808806F02FFDE0
:1002E000002010BD10B500210A200AF000FF0028F0
:1002F00005D000218170BDE810400AF00FBF10BD8D
:100300000178032907D0072907D00A2904D00B292F
:1003100004D00020704729E7CEE7DCE73AE7EFE7B3
:1003200008B50BF0A1FAAFF209034FF400722A49A5
:1003300003200AF01EFF6A4628A103200DF0A5FB4A
:10034000FFF7D0FF00226423114610460DF007FD91
:10035000F8E700B587B00CF079FC00214FF00060A1
:100360000AF07CFC4FF4A0600AF046FC0CF00BFD98
:100370001D480DF1040C032300228021ACE80F007E
:10038000062003460090194A002119480DF025FA6D
:1003900005AA18A106200DF078FB0CF0F4FD07B0BB
:1003A000002000BD00000020190000201A000020DD
:1003B000483B0108496E697420534E5620457272BD
:1003C0006F72000041443737393920496E69742013
:1003D0004661696C00000000300200204D61696ECA
:1003E0002D5461736B000000300A00202C0C00209B
:1003F00021030008526F6F742D5461736B0000006D
:100400007047FEE7FEE7FEE7FEE77047704710B56E
:100410000CF0C8FBFC49097819B1FC490A78521C58
:100420000A700CF0C3FB0CF0C1FDBDE810400CF0ED
:100430003ABD70477047704770477047704700EB90
:100440000011C1EBC01110B5F14800EB810440F27E
:100450002551D4F890010AF0A0FB002805D0D4F86B
:100460009001BDE810400AF031BB10BD10B5E94C59
:1004700040F2255120460AF090FB002807D0204684
:100480000AF024FBBDE81040C0B200F0F0BF10BD80
:100490000120D4E70220D2E7DF48018801888907DC
:1004A00003D5018821F002010180018840F6FA722B
:1004B0001140018001888906FCD5704710B5D74CE2
:1004C0000221204609F0E8FE002812D00221204631
:1004D00009F0EEFE204609F0C8FE00F57A7081B200
:1004E000204609F0B1FE0221BDE8104003200BF0C8
:1004F000CDBD10BD10B501218C07204609F0CCFE02
:1005000038B10121204609F0D3FE012100200BF073
:10051000BDFD0221204609F0BFFE38B10221204670
:1005200009F0C6FE022100200BF0B0FD0421204698
:1005300009F0B2FE38B10421204609F0B9FE0421C9
:1005400000200BF0A3FD0821204609F0A5FE00289D
:1005500009D00821204609F0ABFE0821BDE8104073
:1005600000200BF093BD10BD10B5AD4C012120460D
:1005700009F092FE38B10121204609F099FE0121CF
:1005800008460BF083FD0221204609F085FE38B1B4
:100590000221204609F08CFE022101200BF076FD9D
:1005A0000421204609F078FE38B10421204609F0E4
:1005B0007FFE042101200BF069FD0821204609F08F
:1005C0006BFE002809D00821204609F071FE0821A1
:1005D000BDE8104001200BF059BD10BD10B5914C85
:1005E0000121204609F058FE38B10121204609F0CA
:1005F0005FFE012102200BF049FD0221204609F097
:100600004BFE38B10221204609F052FE0221084675
:100610000BF03CFD0421204609F03EFE38B10421D8
:10062000204609F045FE042102200BF02FFD082191
:10063000204609F031FE002809D00821204609F0A3
:1006400037FE0821BDE8104002200BF01FBD10BD91
:1006500010B5202008F006FD28B1202008F010FD7C
:1006600005200BF08FF8402008F0FCFC28B140205A
:1006700008F006FD06200BF085F8802008F0F2FC5B
:1006800028B1802008F0FCFC07200BF07BF84FF429
:100690008074204608F0E6FC28B1204608F0F0FC03
:1006A00008200BF06FF84FF40074204608F0DAFCD5
:1006B000002807D0204608F0E3FCBDE810400920E0
:1006C0000BF060B810BD10B54FF48064204608F000
:1006D000C9FC28B1204608F0D3FC0A200BF052F8E0
:1006E0004FF40064204608F0BDFC28B1204608F015
:1006F000C7FC0B200BF046F84FF48054204608F05E
:10070000B1FC28B1204608F0BBFC0C200BF03AF8F5
:100710004FF40054204608F0A5FC28B1204608F00C
:10072000AFFC0D200BF02EF84FF48044204608F06B
:1007300099FC28B1204608F0A3FC0E200BF022F80B
:100740004FF40044204608F08DFC002807D02046D6
:1007500008F096FCBDE810400F200BF013B810BD58
:1007600010B5012008F08CFCBDE8104000200BF013
:1007700009B810B5022008F083FCBDE81040012044
:100780000BF000B810B5042008F07AFCBDE810406A
:1007900002200AF0F7BF10B5082008F071FCBDE890
:1007A000104003200AF0EEBF10B5102008F068FCDE
:1007B000BDE8104004200AF0E5BFD0E900BAD0E956
:1007C00002981030F0C818A011F04AFB59461CA03E
:1007D00011F046FB51461DA011F042FB49461EA0F8
:1007E00011F03EFB41461FA011F03AFB214620A02C
:1007F00011F036FB294621A011F032FB314622A030
:1008000011F02EFB394645E0E9010020E40100200B
:10081000A01100200038014004280040002C0140B5
:1008200000040040000800405B486172642066617B
:10083000756C742068616E646C65725D0A000000FE
:100840005230203D2025780A000000005231203D22
:100850002025780A000000005232203D2025780A29
:10086000000000005233203D2025780A00000000DF
:10087000523132203D2025780A0000004C52203DA4
:100880002025780A000000005043203D2025780AEA
:100890000000000010A011F0E3FA1248016812A055
:1008A00011F0DEFA0F481038016812A011F0D8FAE2
:1008B0000C480C38016812A011F0D2FA0948083827
:1008C000016812A011F0CCFA0648001D016812A0C0
:1008D00011F0C6FAFEE70000505352203D20257863
:1008E0000A00000038ED00E042464152203D20253C
:1008F000780A000043465352203D2025780A000024
:1009000048465352203D2025780A00004446535261
:10091000203D2025780A000041465352203D2025E5
:10092000780A0000D04870470BF0B8BECF48008866
:100930007047CE484088704770B52221CC4810F0EF
:100940008BFBCA4A022121200BF016FFC74C002561
:1009500000B12580C54A0221921CB0200BF00CFF8B
:1009600000B16580C24A1021A0200BF005FF18B12C
:10097000C0A1BF4810F0A7FBBD4A10211132144698
:10098000A1200BF0F9FE002805D02046BDE87040FC
:10099000BAA110F098BB70BD70B5BA4B1C6822703C
:1009A0001D6809246C701C68A0701868C01C10F0C9
:1009B0003AFBB5480078BDE8704001F019B82DE960
:1009C000F04116460F4605460CF0ECF8804609F05B
:1009D0002AFD284609F061FD002406E03959284621
:1009E00009F0FFFD2D1D241DA4B2B442F6D309F079
:1009F00026FD40460CF0DAF80020BDE8F08110B585
:100A0000C11C1822A14810F00EFB192010BD70B5B2
:100A1000954D0146ED1E1446E81E2A5D035D9B4878
:100A2000C91C8030184410F0FEFA285D401CC0B28A
:100A300070BD00210160192070478B4A921F525CE3
:100A4000803202608848C01E405C401CC0B27047C3
:100A50002DE9F84F1D4614468A4606460AF045FF22
:100A6000DFF82C824FF420794A464146874810F03F
:100A7000DAFAB278002742B1012A0DD0022A0BD04F
:100A8000032A09D0FF20BDE8F88F51463046FFF712
:100A9000B6FF034600970AE0521E51463046FFF764
:100AA000B6FFB1780346491E6846FFF7C6FF2770B8
:100AB000D0206070754800991A460144E01C10F07F
:100AC000B2FA0AF012FF4A4670494046FFF777FF34
:100AD000A07808B900F061FA287821780844801CD1
:100AE00028700020CFE738B51D46817814460346AC
:100AF00039B1012909D0022907D0032905D0FF20E7
:100B000038BD00200090192003E0491E6846FFF719
:100B100094FF9978A170411C217010216170421ED0
:100B20005B4900980144E01C10F07DFA2878217898
:100B30000844801C2870002038BD10B5091FCAB2B7
:100B4000817821B9C378011D184600F084FA00208D
:100B500010BD51494F48086070472DE9FC411546CA
:100B60008778C2798179CDE900121C4607F26C774B
:100B700043790279C178002638460AF033FF2E7097
:100B8000C02068702078801C2070BDE8FC8170B5A2
:100B90001D4614460BF0D2F806202070C12060706C
:100BA0003E480179A1F26C71A1708179E170C1793F
:100BB0002171017861714178A1718078E0712878A4
:100BC0000830287070BD70B5841C1D4680780BF00D
:100BD000BFF82E4901200870C22048702078887024
:100BE0002878C01C287070BD70B544780025164662
:100BF000D12C15D008DCC02C1DD0C12C20D0C22C8B
:100C000023D0D02C2DD106E0F02C27D0F12C21D0F0
:100C1000FD2C26D10AE00A463146FFF719FF03E012
:100C20000A463146FFF75FFF05461AE00A4631469D
:100C3000FFF783FFF8E70A463146FFF78EFF10E023
:100C40000A463146FFF7A3FF0BE00A463146FFF79D
:100C5000BAFF06E0012000F0D1F802E0012000F028
:100C6000A1F8284670BDBFE7B23A01080C00002089
:100C70003010002041444D494E00000038363038D5
:100C800036300000483B01081A000020300C0020DC
:100C900000F401080400FA050CED00E08C240020AB
:100CA0002DE9F041244D254E00244FF40478285DB1
:100CB00041460AF03AFC285D00210AF062FC06EB8E
:100CC00044100746202110F0C7F93C70641C0A2C20
:100CD000EDDBBDE8F081184A105C0AF052BC164901
:100CE00010B5085C0AF040FCC0B210BD1249085CA7
:100CF0000AF056BC10B5044600780021FFF7EBFF60
:100D0000E069002802D0BDE81040004710BD7CB566
:100D10000D460A4901EB40140121E261FFF7DBFFB8
:100D2000201DAFF22F03CDE900402A4600211046D6
:100D30000BF017FA7CBD0000C63A010854100020E1
:100D400070B501210A4808F083FA0A4D00244FF4D7
:100D50001276285D31460AF0E8FB641C012CF8DBB2
:100D600070BD044910B5085C0AF0FEFBC0B210BDAE
:100D700000043000D03A010810B54FF404710F2080
:100D80000AF0D3FB0121BDE810400F200AF0F9BBA7
:100D900008B1002100E001210F200AF0F2BB0F2072
:100DA0000AF0FEBB10B504000ED00120FFF7F0FFE3
:100DB000642044430A20B4FBF0F200230121BDE883
:100DC000104003200AF077B8BDE810400020DFE7AC
:100DD00010B54FF4047108200AF0A7FB0021BDE80C
:100DE000104008200AF0CDBB08B1012100E000212D
:100DF00008200AF0C6BB08200AF0D2BB10B50400D8
:100E00000ED00120FFF7F0FF642044430A20B4FB1A
:100E1000F0F200230121BDE8104002200AF04BB897
:100E2000BDE810400020DFE710B54FF40471322018
:100E30000AF07BFB0121BDE8104032200AF0A1BB83
:100E400008B1002100E0012132200AF09ABB3220D3
:100E50000AF0A6BB38B50D4600EB0011C1EBC0117E
:100E6000FE4800EB810494F88C01A84209D0D4F824
:100E7000B8013DB1002804D10CF00DFAC4F8B80156
:100E800028B938BD18B16A4601210CF0EEFA84F891
:100E90008C5138BDF0B5054600EB0510C0EBC5110F
:100EA000EE4885B000EB8104D4F8B01100295ED083
:100EB00028468847D4F89001002858D004F5C87413
:100EC000002620798DF810000F208DF811008DF884
:100ED000126001278DF8137004A809F092FE2069B2
:100EE0000090207DDE4931F81000ADF80400607DEF
:100EF000091D31F81000ADF80600A07D891D31F8FC
:100F00001000ADF808000C20ADF80C60ADF80A0038
:100F1000207A69460BF084F92068A4F5C874012290
:100F200040F2255109F082FDCC480C3850F82510CC
:100F300051B994F88C1140F8257084F88C612846DA
:100F4000C4F8B861FFF786FF94F8A701A4F88801F8
:100F500094F89C0100280AD194F8AC014FF4447134
:100F60000AF0E3FA94F8AC0100210AF00AFB05B09C
:100F7000F0BD00EB0012C2EBC012B84800EB8200DB
:100F800090F89C21002A07D190F8AC0109B1012109
:100F900000E000210AF0F5BA704710B50024E0B275
:100FA000FFF778FF641C032CF9DB10BD70B5154604
:100FB0000E460246032819D202EB0210C0EBC21102
:100FC000A64800EB8104B4F88211B4F88001814294
:100FD00001D1802007E0081A8030C11700EB516171
:100FE00021F07F01401A80B2A84201D2002070BDDA
:100FF00001211046FFF7BDFFB4F88001B4F882115B
:10100000884203D3C0F18002AA420ADD20442A4666
:10101000314610F008F8B4F880012844A4F88001A3
:1010200010E0204431460FF0FEFFB4F88001C0F11B
:1010300080008119281A85B220462A460FF0F3FF56
:10104000A4F88051012240F22771D4F8900109F0F0
:10105000EDFC012070BD30B4824B012418705C702F
:1010600030BCA3E700EB0012C2EBC0107B4A0021AA
:1010700002EB8000A0F88A1170472DE9F041064686
:1010800000EB0610754BC0EBC61003EB8004154651
:10109000B4F88621B4F884010F46824202D14FF49D
:1010A00080710AE0111A01F580714FEAE17C01EBD1
:1010B0001C6C2CF0FF0CA1EB0C0189B2A94202D2EE
:1010C0000020BDE8F08106EB06114FF0800CC1EB6B
:1010D000C6110CEB8101904203D3C0F58072AA4285
:1010E0000BDD184408442A4639460FF09CFFB4F83B
:1010F00084012844A4F8840112E0184408443946C5
:101100000FF091FFB4F88401C0F58070C119281A5E
:1011100085B204F180002A460FF085FFA4F88451BF
:101120003046FFF79FFF0120CBE700EB0012C2EB38
:10113000C0124A4800EB8200A0F88811A0F88A117A
:1011400070472DE9F047064600EB0610434FC0EB11
:10115000C61007EB80048846B4F88601B4F8841101
:10116000C0F580700844C11700EB116121F0FF0148
:10117000401A80B21546824200D3C5B2E5B30BF0E7
:1011800011FD8146B4F88601B4F88421802106EB74
:101190000613C3EBC61301EB8301904204D238441B
:1011A00001442A46404613E0C0F58072AA42F6DCAC
:1011B0003844014440460FF036FFB4F88601C0F5CC
:1011C0008070291A0A04120C04D004F180014044F2
:1011D0000FF029FF94F886012844C0B2A4F88601D4
:1011E000B4F88411884204D10020A4F88401A4F842
:1011F000860148460BF0DAFC2846BDE8F08770B55A
:10120000054600EB0510C0EBC511144800EB81004A
:10121000B0F88611B0F88421914236D0B0F88A3106
:101220005B1C9BB2A0F88A31B0F88841A3422CD352
:10123000C1F580711144CA1701EB126222F0FF025E
:10124000891A8EB290F88C1131B1D0F8B801BDE88E
:10125000704001210CF044B9314605E0A011002096
:10126000D23A010810000020042009F040FF0400D9
:101270000BD0F2B204F108012846FFF762FFA57017
:101280002046BDE8704009F049BF70BD70B500EB65
:10129000001100F11003C1EBC0114E4800EB8104B6
:1012A00004F5D0752A460C2118460BF065FA20B1DA
:1012B0002846FF220C210FF0C8FED4F8A001B0F59B
:1012C000E13F03D94FF41650C4F8A00194F8A411DB
:1012D0000020022901D384F8A40194F8A511032960
:1012E00001D384F8A50194F8A611032901D384F849
:1012F000A60194F8A7010221FA2801D8022801D2F8
:1013000084F8A71170BD00EB0011C1EBC01031498A
:1013100001EB800090F88C01704700EB0011C1EBED
:10132000C0112C4800EB8100B0F88611B0F88401A0
:10133000814201D10120704700207047F8B5044672
:101340000F4600EB0410C0EBC4112248164600EB18
:10135000810595F88C0100280FD07BB12046FFF75E
:10136000DCFF58B16A461946D5F8B8010CF01BF8F5
:10137000324639462046FFF7E4FEF8BD324639468C
:101380002046BDE8F840DCE610B5044600EB04104A
:101390001049C0EBC41001EB8000D0F8900109F0B7
:1013A00093FA2046BDE8104074E500EB0011C1EB54
:1013B000C011084800EB8100B0F88211B0F880013C
:1013C000081A8030C11700EB516121F07F01401AEB
:1013D00070470000A011002010B50C46480702D04D
:1013E000002000F025FBE00609D564480078C1071D
:1013F00001D1800703D5BDE810400AF06BBF10BDD6
:1014000010B586B000244FF4E1300090ADF80840EC
:101410000C20ADF80440ADF80A00ADF80640ADF878
:101420000C40694620460AF0FBFE25208DF810008E
:101430000F208DF811008DF8124001208DF8130057
:1014400004A809F0DEFB012240F225514C4809F0C6
:10145000EDFA4FF402714B480FF0FEFDAFF287003A
:101460004849C1F8040200F06CFB06B010BD4549C4
:1014700091F80022885401F500710878401C08702A
:101480004A6804210020104710B53D4C0146204613
:1014900009F018FB4021204609F075FB0028F9D01F
:1014A00010BD70B50D460646002404E0305DFFF720
:1014B000EBFF641CE4B2AC42F8D332481021D0F800
:1014C0000422BDE870400020104770B5BF2A11D833
:1014D0002D4B1C6822701D6809246C701C68A0705C
:1014E0001868C01C0FF09FFD28480078BDE87040C8
:1014F00000F07EBA70BD4030C0B2E6E710B51446C9
:101500000A4608B1002010BDE1B21046FFF7C9FF3E
:10151000204610BD78B91B4A92F8003292F80102B9
:10152000834208D0105C087092F80102401C82F8D7
:101530000102012070470020704710B504460FF0EB
:10154000A0FD2146C2B2BDE810403020BDE70FB477
:101550000F4900B5096891B0884207DC14AA6846B3
:10156000139910F0A9FC6846FFF7E7FF11B05DF88A
:1015700014FB052801D206490860704720000020AE
:1015800000380140D4160020483B01081A00002012
:101590001400002070B50D460FF069FD002404E032
:1015A00000F8014B29460FF062FD0028F8D170BD0C
:1015B00070B504680646002C1FD020460FF061FD70
:1015C00000281AD00FF022FD054600682178415C02
:1015D000C90701D0641CF9E720460FF052FD01193C
:1015E000491E002201E001F80129A14204D30B7831
:1015F0002868C05CC007F6D1346070BD70B51C4669
:10160000154610600FF033FD206000280BD000213C
:1016100001702068401C20602846FFF7C9FF204663
:10162000FFF7C6FF012070BD2DE9FE431C46894629
:10163000022A4AD30178412947D14178542944D11B
:1016400000268654921E12F0FF0700F1020518D002
:1016500028780D2815D00A2813D00822DFF8D48165
:1016600071A0082F03D329460FF036FD98B105224B
:1016700071A0052F29D329460FF02EFD00287DD01B
:1016800023E04F2189F800104B2189F801102078C0
:10169000801C187056E005F1080001AB02AA3D213C
:1016A000FFF7ACFF88B10025654F08E007EB860027
:1016B000C16802980FF0ECFC50B16D1CEDB205EB67
:1016C000850637F826000028F0D1FF20BDE8FE830C
:1016D000019801783F290BD005EB850107EB8105C7
:1016E000297A012930D0022933D0042936D038E0B4
:1016F00005EB850007EB800598F80000A97A814288
:101700001AD8687A18B14FA16B68EA680CE02A7A97
:10171000684669680FF087FC287A012806D00228FD
:1017200007D0009BEA6849A1484672E09DF8003066
:10173000F8E7BDF80030F5E746A14846EA6810F042
:101740009FFB68E00020C1E70FF09AFD8DF80000D4
:1017500007E00FF095FDADF8000002E00FF090FDFE
:101760000090687AE8B101980FF08BFC297A8842E2
:1017700003D8686801990FF0A6FC00E017E0A97A89
:1017800098F800008142D7D8297A37F826006A46AF
:10179000FFF7CAF82969044609B168468847204618
:1017A00094E72A7A694668680FF03DFCE5E720A0D7
:1017B00001901FA06D1D009026212846FFF7EAFE2C
:1017C00028460FF05EFC28B1284601950FF059FC21
:1017D00005446D1C28460FF054FC18B128460095AE
:1017E0000FF04FFC01A8FFF7E3FE6846FFF7E0FEAD
:1017F0001E4801990FF04CFC28B91C480099113083
:101800000FF046FC58B188F8006019A1DDE90032FC
:10181000484610F035FB21780844207092E70121FA
:1018200088F8001017A1F1E72B434F4E4649473D7A
:1018300000000000180000202B4C4F473D00000026
:10184000E43A010825733A257300000025733A2510
:1018500075000000636F6E6669672025733A207516
:101860006E617574686F72697A656400301000206B
:101870004C4F472025732625733A204661696C65D5
:10188000640000004C4F472025732625733A2053EF
:101890007563636565640000F8B5AE4D01238DF88E
:1018A0000030AD4E2868002472798178D01E21293D
:1018B00034D005DC11B3012922D0202904D124E041
:1018C000222934D050293CD02968081D0FF0ABFBE9
:1018D0009DF8000071790844C01E8DF800000124B5
:1018E00029689DF80000087028682968807840F011
:1018F000800088702868C4700120F8BDF371EFE79C
:101900000AF0AEFE0220F071EAE7C2B22968286848
:101910006B46091DC01CFFF787FE10E0C2B22968A4
:1019200028686B46091DC01C05F087FF11E0C2B294
:10193000296828686B46091DC01CFFF794F9044606
:10194000CEE7C2B2296828686B46091DC01C06F0A4
:1019500042FA04460928C3D10020F8BD70B57D4D78
:101960000122002428688178042909D028460068CB
:10197000401C052910D0062919D0072900D00124C0
:101980002868027028682968807840F08000887094
:101990002868C470012070BD0C21C170001D0AF0C0
:1019A000F6FC28680021102241748174E8E7FEF7F4
:1019B000B9FF0FF066FB064628680671FEF7B2FF16
:1019C000014628683246401D0FF02DFBB61CF2B2CE
:1019D000D6E760480122114603681A70026803685E
:1019E000927842F080029A700068C17001207047BE
:1019F00070B5584E0546002330681C4619460078DD
:101A0000C01CC2B203E0405C4340491CC9B230680C
:101A10009142F8D383545048504B921C81781970EE
:101A2000FD21817019462846FFF768FD204670BDEC
:101A3000F8B505460024484E3DE0B17931B10129A1
:101A40000CD0022916D0032935D126E09DF80000DC
:101A5000FE2801D0FD282ED101201CE09DF80000B9
:101A6000BF2801D9B47126E00221B1713471F4703C
:101A7000C01C7071F1789DF800004140F17035494B
:101A80003279096888543079401CC0B2307171795C
:101A9000884210D10320B0710DE0B471F0789DF848
:101AA0000010884207D100210B2009F020FB10B163
:101AB000C57009F033FB012269462846FFF72AFD6D
:101AC0000028BAD1F8BD70B50025234C2FE010F8DE
:101AD000012BA37933B1012B08D0022B10D0032B9B
:101AE00025D11EE0FE2A22D1012218E0BF2A01D909
:101AF000A5711CE00223A3712571E570D31C6371ED
:101B0000E3785340E370134B26791B689A5522798A
:101B1000521CD2B2227163799A4208D10322A27177
:101B200005E0A571E378934201D1012070BD0A0060
:101B3000A1F1010189B2CAD1002070BD06498870A7
:101B40007047054800218171C17101704170FD210C
:101B500081707047483B010819000020DC18002004
:101B600009490AA010F07CB970B5094D0446C1B20C
:101B7000284608F0A7FF4021284609F004F800286D
:101B8000F9D0204670BD00004C3B010825730000D1
:101B9000003801400120704738B504460AF0F1FFD3
:101BA00000221423114610460CF0D9F80122694690
:101BB00020200AF03FFF9DF80020FF2A0AD04AB1FA
:101BC000214600200AF0B3FF214601200AF0AFFFB2
:101BD000002038BD012038BD38B541F010018DF826
:101BE000001040F0100015468DF801001C4602223E
:101BF000694610200AF039FF8DF800408DF8015039
:101C00000222694608200AF030FF38BD08B50020DE
:101C10008DF8000003220DF1010118200AF00AFFDF
:101C20009DF801009DF80210000440EA01209DF893
:101C30000310084308BD0000F84A116B814201D02F
:101C4000C2E90C017047F0B5002200E0521C835C31
:101C5000202BFBD0092BF9D0DCB22D2C05D04FF076
:101C6000010605D02B2B03D003E04FF0FF36F8E739
:101C7000521C00236FF02F070B6007E00C68521C0A
:101C800004EB840407EB440423440B60835CA3F15E
:101C90003004092CF2D9DBB22E2B00D1521C0123C7
:101CA0000AE00D6803EB830305EB850507EB4505AB
:101CB0002C445B00521C0C60845CA4F13005092D9F
:101CC000EFD908684FF47A7270430860934204D2E7
:101CD000B2FBF3F242430A60F0BDB3FBF2F2B0FB99
:101CE000F2F00860F0BD10B50178082905D2DFE8F0
:101CF00001F0042337372D9045794078012870D1C1
:101D0000012196E00020FEF7E6FF01210120FEF709
:101D1000E2FF01210BE00320FEF7DDFF0021084672
:101D2000FEF7D9FF00210120FEF7D5FF0021BDE815
:101D300010400620FEF7CFBF00210420FEF7CBFFA6
:101D400001210220FEF7C7FF002112E0002104203C
:101D5000FEF7C1FF00210220FEF7BDFF0121DAE7F7
:101D600001210420FEF7B7FF00210220FEF7B3FF98
:101D700001210320FEF7AFFF0121C3E740780428CB
:101D800015D005284FF000014FF004001DD0FEF7DC
:101D9000A2FF00210220FEF79EFF00210320FEF794
:101DA0009AFF00210846FEF796FF0021AEE70021CA
:101DB0000420FEF790FF01210220FEF78CFF002196
:101DC0000320FEF788FF00219CE7FEF784FF012136
:101DD0000220FEF780FF00210320FEF77CFF012197
:101DE00012E01BE0407802288AD0032816D1012196
:101DF0000420FEF770FF00210220FEF76CFF012196
:101E00000320FEF768FF00210020FEF764FF012198
:101E100089E7407806280BD00728E5D00021042068
:101E2000FEF759FF00210220FEF755FF002172E75F
:101E300000210420FEF74FFF0021BDE770B500240C
:101E40000546012606FA04F0284204F10700C0B254
:101E500001D0012100E00021FEF73DFF641C032CAE
:101E6000F0DB70BD70B5102200216D4809F059FDFE
:101E70006B48203806F0B8FE694C203C206A401CB4
:101E800002D109F063FF2062E08D4FF6FF75002656
:101E9000A84200D1E685606A401C02D109F056FFD5
:101EA0006062A06A401C02D109F050FFA062A08DC0
:101EB000A84200D1A685D4F8F021BDE8704059A110
:101EC0000420FFF744BB10220021554809F04BBD08
:101ED000534810B502221021F83009F022FD18B93C
:101EE00055A10020FFF733FB4D482038B0F81811FA
:101EF000A1F57F42FF3A02D10021A0F8181110BDD0
:101F0000474810B502221021F83009F02CFD0028B6
:101F100004D1BDE810404CA1FFF719BB10BD70B54E
:101F20003F4D203DB5F81841FFF7D2FFB5F8180135
:101F3000A04204D0A5F81841BDE87040E0E770BDAC
:101F400010B508281BD2364A203A02EBC00494F898
:101F5000C80000F001020A4311D0C20702D00029D4
:101F60000DD103E011B140F0010001E020F00100CB
:101F700084F8C80021B109F0E9FEC4F8CC0010BD16
:101F800020F0020084F8C80010BDF0B5012500243F
:101F9000264603E005EB85056D00761C9642F9DBCD
:101FA00090FBF5F61E4F05FB1600803F4FF00A0E22
:101FB000B44696FBFEF60EFB16CC0CF1300C07F87F
:101FC00004C0641C002EF3DC26464FF0200C03E016
:101FD00007F804C0641C761C8E42F9DB002105E082
:101FE000661A3E4416F8016C5E54491CA142F7DBA8
:101FF0002E211955641C00210AE095FBFEF590FB8B
:10200000F5F606F130071F55641C05FB1600491C48
:102010009142F2DB00201855F0BD0000280000209E
:10202000201A0020756C5546436C65616E54696DCD
:1020300065203D202564000072656164207174771D
:10204000206661696C0000007772697465207174A4
:1020500077206661696C0000F0B5012500242646F2
:1020600003E005EB85056D00761C9642F9DB90FBDD
:10207000F5F605FB1600FE4F4FF00A0EB44696FB30
:10208000FEF60EFB16CC0CF1300C07F804C0641CF5
:10209000002EF3DC26464FF0200C03E007F804C0C6
:1020A000641C761C8E42F9DB002105E0661A3E4472
:1020B00016F8016C5E54491CA142F7DB00210AE0CE
:1020C00095FBFEF590FBF5F606F130071F55641CF5
:1020D00005FB1600491C9142F2DB002018559BE7D6
:1020E0000B460122022150E70B46032201214CE757
:1020F00010B5044604210A2008F0F9FF002806D094
:10210000112181708460BDE8104009F007B810BD4E
:1021100070B509F01BFED64BD64C4033196821F040
:1021200007011960B3F884207ABB1A6A824212D27E
:10213000821AB2FBF4F2B3F86050954202D841F033
:1021400001011960D98DB3F86220914203D3196857
:1021500041F001011960996A814216D2411AB1FB1E
:10216000F4F1B3F864208A4203D8196841F00201FF
:102170001960B3F866109A8D01EB4101B2EB410F83
:1021800003D3196841F002011960596A81420AD2E9
:10219000401AB0FBF4F0B3F86810814203D8186815
:1021A00040F00400186070BD814204D9B24A081A98
:1021B0001368184410607047F8B506461D460C4673
:1021C00010460EF05EFF0146AC48006B02780095A9
:1021D000407802FB0162204483B290B2A1B240F287
:1021E0003F1206F07CF9F8BD38B5A44C1546FF281F
:1021F00010D1FF290ED110460EF043FF216B0A7853
:102200004978520850437822A2EB5102C0F1A00055
:10221000A2EB5101964A89B2403280B2538B0093AF
:10222000138B226B94682A46A04738BD2DE9F843EA
:10223000DFF83C820024A8F1200808F1600625465A
:10224000B01DD8F86470FFF74EFD3079072810D222
:10225000DFE800F00F0E08040F0F0B00002105202F
:10226000FEF739FD0124254603E07079052800D1E9
:102270000124B8F86610D6F8BC90A8F864100820BD
:10228000B071F07109F062FDC6F8BC001CB10146E6
:102290004846FFF789FF45B13068410505D4D6F8B7
:1022A000981011B140F48060306030790024032828
:1022B0000CD2DFE800F0020B070017F0FF0F05D08B
:1022C000748203E001210520FEF705FD30884004FB
:1022D0000FD58DF8004001208DF801000B208DF8FE
:1022E000020030798DF8030004226946A120FFF72F
:1022F000ECF8BDE8F88310B509F0F7FA5C484E3009
:10230000418801800E380A21017492214174FF2115
:10231000417310BD7FB500240094019402942346BC
:102320000122214620460394FFF756FC00256E4605
:102330000AF0B0FB40B152A10120FFF708F96D1C73
:10234000042DF5DB01200CE0FFF760FC46F82400CB
:10235000641CE4B2F3E756F820200099401C1144B5
:102360000091A042F7DB1CB10098B0FBF4F00090A4
:102370000021402301220846FFF72EFC009804B0FC
:1023800070BD7FB50024012200940194029423467D
:10239000214610460394FFF71FFC00256E460AF005
:1023A00079FB40B136A10120FFF7D1F86D1C042D57
:1023B000F5DB01200CE0FFF729FC46F82400641C43
:1023C000E4B2F3E756F820200099401C1144009134
:1023D000A042F7DB1CB10098B0FBF4F000900021A4
:1023E000402301220846FFF7F7FB0098C7E72DE9D5
:1023F000FC5F0E46002183468846894610460FF052
:10240000D4F804460D4630460FF0CFF8DFF860A050
:1024100006460AF1400A0F46DAF844000FF0D6F8F3
:102420000022194B0FF052F822462B460EF0DCFF2B
:1024300004460D4602460B46002014490EF0CEFF1E
:10244000CDE900010022124B204629460EF0CCFFB8
:10245000DDE900230FF03AF804460D4600200D494F
:1024600010F052FCCDE900012046294614E000009E
:10247000C019002080510100C41A0020280000204B
:102480004144204641494C0000408F400060A34039
:102490000024B3400088C34010F036FCFD4AFE4BD8
:1024A0000EF0FBFEDDE900230EF098FF02460B461E
:1024B0000020FA490FF00AF84FF06632F84B0EF0A0
:1024C0008DFF04460D46BBF1000F52D0BBF1010F4A
:1024D0004DD1F44AF44B304639460EF085FF804624
:1024E000894600224FF080433046394610F0C4FD43
:1024F000EE4AEF4B0EF078FF04460D460022ED4BFE
:102500003046394610F0B8FDEB4AEC4B0EF06CFF4C
:1025100022462B460EF0C1FE42464B460EF0BDFE53
:102520000D460446DAF8A4104FF47A7091FBF0F0EF
:10253000C0F119000FF039F8E14AE24B0EF054FFF8
:102540000022E14B0EF0A9FE22462B460EF04CFF76
:1025500004465046061D0D46C06B0FF037F8224664
:102560002B460EF041FF0FF03EF8C6F89800BDE88C
:10257000FC9F0022D54B20460EF036FF0FF033F8BB
:10258000CAF8A400D24AD34B3046394610F074FD45
:102590000022D14B0EF028FFDFF840B306460F466D
:1025A00000225B46204629460FF03CF80BD8CC4A67
:1025B000CC4B204629460EF017FFCB4ACB4B0EF0F2
:1025C0006CFE8046894600225B46204629460FF075
:1025D0003DF80BD2C64AC74B204629460EF004FFF1
:1025E000C54AC64B0EF059FE804689460022C44BB0
:1025F000204629460EF0F2FE42464B460EF0F4FE0F
:102600000022B14B0EF049FE32463B460EF0ECFE86
:1026100005460E465446DAF838000EF0D7FF2A4633
:1026200033460EF0E1FE0EF0DEFF44F25061C4F8D6
:102630009800884203DB44F21870C4F89800D4F87C
:10264000B010814293DAC4F8B00090E72DE9F04170
:10265000074608460EF0A9FF0546AA48AA4C0E46B2
:10266000022F17D1D0F8A4004FF47A7190FBF1F04B
:10267000C0F119000EF099FFA44AA54B0EF0B4FE6C
:102680000022914B0EF009FE2A4633460EF0ACFEB6
:10269000C4E91201D4E91201BDE8F0812DE9F04747
:1026A00080461E4608460EF080FF04460D46304622
:1026B0000EF07BFF934FDFF85C92974EDFF85CA241
:1026C000B8F1020F72D122462B460EF08AFE044664
:1026D0000D46D7F8A4004FF47A7190FBF1F0C0F1E9
:1026E00019000EF062FF894A894B0EF07DFE002230
:1026F000754B0EF0D2FD22462B460EF075FE10F003
:1027000003FB0022864B0EF06FFE04460D460022AE
:10271000574653460EF09AFF08D200223B46204609
:1027200029460EF05BFE04460D4643E022462B464A
:10273000002039460EF052FE00224B460EF072FF8A
:1027400002D80024774D35E022462B46002039463A
:102750000EF044FE002233460EF064FF0DD82246F0
:102760002B46002039460EF039FE00224B460EF073
:102770006DFF02D200246C4D1CE022462B46002047
:1027800039460EF02BFE0022684B0EF04BFF0ED8A0
:1027900022462B46002039460EF020FE002233460A
:1027A0000EF054FF03D20024424D03E018E0002451
:1027B0004FF08045534800F10806006C0EF006FF0C
:1027C00022462B460EF010FE0EF00DFFC6F89800C4
:1027D000401E4FF4FA61884202D24A48C0F8A01065
:1027E000BDE8F08710B50020FEF7BBFA28B1012143
:1027F0000720FFF7A5FB002010BD00210720FFF7F1
:102800009FFB012010BD70473E4A126B1AB1022A8D
:1028100001D047A2E8E448A2FCE72DE9F04149488D
:1028200088B0384CD0E9021200690591CDE9062044
:10283000B4F8180101A9FFF753FC01A80EF021FC20
:10284000314F401C396B0A7852085043C0F1A00543
:102850004878C0F14A0601A80EF013FC3A6B1178D3
:1028600001FB0058608B0090A8B29568238BB1B231
:1028700001AAA8473D6B05AA68788119081A618BDF
:102880000091216B238B52F8212081B208F10A00BC
:1028900080B259E010E0B7AF297F2A4000DCAE409B
:1028A00066127140EFC9C342AD699E3F3A013E597D
:1028B000E014CE3E00000840E1508A8BF3912C3E9C
:1028C0007B14AE47E17A943F0000F03F00408F4018
:1028D000E17A14AE47E1F6BF00C3DE4000002E40AF
:1028E000FCA9F1D24D62503F705F07CE19519A3F5B
:1028F0005F07CE1951DA5B3F79E9263108AC8C3F8E
:1029000000003940001A002028000020B81E85EB86
:1029100051B89E3F00001840000028400038844015
:102920000060584000001440000010400000324099
:10293000CBAECFE4BFD50000456D707479205461F3
:102940006E6B0000803B0108AC68A04708B0A3E6AE
:10295000FE4810B5408B05F061FDBDE810405CE716
:102960002DE9FF4F87B00746DFF8E0A309988B46B3
:10297000C107BAF81A60149C5046DFF8D4831D468C
:10298000069400EB870974D0A4F11E000590012F76
:102990003AD15046BAF86E10006B21B128B1022826
:1029A00005D0ECA104E0EEA102E0EEA100E0F0A170
:1029B00001A80EF088FB01A80EF063FBD8F83020C8
:1029C0000B30117800FB0150B0F5A07F02DB2D1A0F
:1029D00005F23B15BAF870000096012802D0059860
:1029E00081B200E0A1B2A5F12800D2F808C080B2FF
:1029F000002301AAE04701A80EF043FBD8F83010ED
:102A0000097800FB01556D1FBAF86A0050EA07010A
:102A100002D0012820D020E0D9F89800B0F57A7FC4
:102A200007DB3230642190FBF1F0012201AB02217F
:102A30001CE0D2A101A80EF046FB01AAD1A1D24808
:102A40000FF01EFABBF1000F02D0D048FFF7F4F8E8
:102A5000C7B1012F1AD024E067B1D9F898006421DA
:102A6000401D90FBF1F001AB01220121FFF78DFA2F
:102A7000E3E765E0C649DAF8980001AB91FBF0F0B6
:102A80000322F2E7A1B2A8B200960FE0BAF86E10E6
:102A900099B1BAF87000012803D00096059881B268
:102AA00001E0A1B20096A5F1230080B2D8F8302051
:102AB0000023D2F808C0B44AE047B3480EF0E1FA68
:102AC0000146D8F830004346BBF1000F0278407849
:102AD00001FB0255044402D0586BFFF7ADF8186BA8
:102AE00098464078241ABAF86A00384308D0A9A258
:102AF000A4A1A5480FF0C4F92FB1012F07D012E00F
:102B0000A6A2A8A1F5E7A1B2A8B2009610E0BAF873
:102B10006E1099B1BAF87000012804D0A4F11E001B
:102B200081B2009601E0A1B20096A5F1230080B227
:102B3000D8F8302000239768934AB84704F11E0460
:102B4000099880072AD5D9F8A4006421323090FB77
:102B5000F1F00122574601AB1146FFF716FA386B28
:102B600020B1022802D001AA8FA101E001AA92A1FE
:102B700085480FF085F93879062802D0BBF1010F9E
:102B800014D0A1B2A5F15A000096D8F8302080B236
:102B9000002397687C4AB84704F11E04099800078F
:102BA0003FD5BAF87000012805D03AE0A1B2A5F1EE
:102BB0008C000096E9E7D9F8980078B182498842FC
:102BC0000EDD82A170480FF05BF9A4F11E0081B206
:102BD000283D0096A8B2D8F830201DE07FA1F1E78B
:102BE000D8F800104746012920D000F5FA704FF4BC
:102BF0007A7190FBF1F001AB00220321FFF72CFA70
:102C000001AA7AA160480FF03BF9A4F11E000096DA
:102C100081B2283D3A6BA8B2002395685A4AA8476A
:102C20001E3406980BB0201ABDE8F08F73A15648E9
:102C30000FF026F9E9E745490868C2072BD182075A
:102C400029D4400727D491F8C800800723D491F8ED
:102C5000D00080071FD491F8D80080071BD491F8CA
:102C6000E000800717D491F80001C00713D191F854
:102C7000E80080070FD491F8F00080070BD491F89A
:102C8000F800800707D4887B052804D0C87B50282B
:102C900001D00020704701207047F8B52B4E074641
:102CA0001546B6F884000C4600284CD1B07B0128AC
:102CB00049D0022847D03079012803D0022801D01A
:102CC000032841D196F8C800C0070CD009F03EF89F
:102CD000D6F8CC10401AB42805D396F8C80040F0B6
:102CE000020086F8C80096F8D000C0070CD009F0A2
:102CF0002DF8D6F8D410401AB42805D396F8D00091
:102D000040F0020086F8D00096F8D800C0070CD03A
:102D100009F01CF8D6F8DC10401AB42805D396F850
:102D2000D80040F0020086F8D80096F8E000C0070E
:102D300070D009F00BF8D6F8E410401AB42869D323
:102D400096F8E00062E0BFE097E063E0001A002040
:102D500028000020BDF8CBAE20202020000000007D
:102D6000202000004665656420202020000000002F
:102D700045696E67616E672000000000203C2031CD
:102D80000000000025730000300C0020781C00209B
:102D900040420F00A6CC532F636D00004DA6B82E05
:102DA000636D000020257300CBAECEC22020202012
:102DB0002573A1E60000000054656D702E202020D0
:102DC0002573A1E600000000B8820100544F4320A3
:102DD000202020203E39392070706200544F43205B
:102DE000202020203020707062000000544F4320CB
:102DF000202020202573207070620000544F432053
:102E000020202020322070706200000040F002007C
:102E100086F8E00096F8E800C0070CD008F096FFAE
:102E2000D6F8EC10401A0A2805D396F8E80040F0CE
:102E3000020086F8E80096F8F000C0070CD008F011
:102E400085FFD6F8F410401A0A2805D396F8F0004A
:102E500040F0020086F8F00096F8F800C0070CD0A9
:102E600008F074FFD6F8FC10401A0A2805D396F82B
:102E7000F80040F0020086F8F800FFF7DCFE317938
:102E8000062903D048B1B6F8701031B1E80710D068
:102E900003223B460021009405E0E80709D0032205
:102EA0003B46012100940020FFF75AFD044404F141
:102EB0001E04A80709D4680706D53B46082200214E
:102EC00002200094FFF74CFDF8BD01223B46002193
:102ED00010460094FFF744FD0444ECE770B5F94E4A
:102EE00014252C46708B05F099FA326B72B1022AC8
:102EF0000ED0F5A221462846FFF776F9FFF78DFCA4
:102F0000BDE87040052250215A20C6E6F1A2F1E743
:102F1000F6A2EFE710B5EB4C608B05F07FFA206B63
:102F200060B102280CD0F5A214210846FFF75CF925
:102F300005225021BDE810405A20AEE6F1A2F3E789
:102F4000ECA2F1E710B5DF4C608B05F067FA206B5F
:102F500060B102280CD0EDA20A210846FFF744F91F
:102F600005225021BDE810405A2096E6E9A2F3E779
:102F7000ECA2F1E710B5D34C608B05F04FFA206B53
:102F800060B102280CD0E1A20A210846FFF72CF913
:102F900005225021BDE810405A207EE6DDA2F3E76D
:102FA000E0A2F1E710B5C74C608B05F037FA206B53
:102FB00060B102280CD0D5A214210846FFF714F9FD
:102FC00005225021BDE810405A2066E6D1A2F3E761
:102FD000D4A2F1E710B5BB4C608B05F01FFA206B53
:102FE00040B1022808D0D3A21421BDE81040084601
:102FF000FFF7FAB8D1A2F7E7D2A2F5E71CB5D3489C
:10300000D0E90010CDE9001008F06FFCAD48018850
:10301000C1F382113DF811104183817B0A290BD243
:10302000DFE801F0050A0A0B191C0A0A0A0EC07B28
:10303000002801D1FFF7CEFF1CBDFFF7B3FF1CBD79
:10304000C07B802804D08128F9D1FFF77BFF1CBD0D
:10305000FFF790FF1CBDFFF75DFF1CBDC07B502834
:1030600004D05228F9D1FFF739FF1CBDFFF770FCDF
:103070001CBD2DE9F04FDFF84C820E468146D8F892
:10308000001089B001F00100C1F380021044C1F3C7
:103090004002024498F8C80000258346C0F340006F
:1030A000024498F8D000DFF8A8A28646C0F340009A
:1030B000024498F8D8000790C0F34000024498F802
:1030C000E0000690C0F34000104498F80021C1F3DE
:1030D000821402F00103034498F8E8000590C0F35D
:1030E0004000034498F8F0000490C0F3400003440B
:1030F00098F8F8000090C0F340001844C1F3402352
:10310000184410F0FF0F4046807B7CD005287BD010
:1031100001287AD0022878D0072876D0082874D0E1
:1031200021F4E0710020C8F800105FEAC17C4FF084
:10313000010301AF08D08DF8040021F4E07101F122
:1031400040010120C8F800105FEA817C08D53B549B
:1031500021F4E07101F1400100F10100C8F8001014
:103160004B0709D502233B5421F4E07101F14001E2
:1031700000F10100C8F80010D1070BD00321395429
:10318000D8F8001000F1010021F4E07101F1800194
:10319000C8F800105FEA8B710BD504213954D8F8B8
:1031A000001000F1010021F4E07101F18001C8F884
:1031B00000105FEA8E710BD505213954D8F8001044
:1031C00000F1010021F4E07101F18001C8F8001064
:1031D000079989070BD506213954D8F8001000F15A
:1031E000010021F4E07101F18001C8F80010069996
:1031F00089070FD507213954D8F8001000F10100D4
:1032000021F4E07102E051E0CBE0C5E001F1800182
:10321000C8F80010059989070CD508213954D8F849
:10322000001000F1010021F4E07101F18001C0B251
:10323000C8F80010049989070CD509213954D8F829
:10324000001000F1010021F4E07101F18001C0B231
:10325000C8F80010009989070AD50A213954D8F80E
:103260000010401C21F4E0718031C0B2C8F8001099
:1032700098F80C10B1FBF0F300FB131088F80C0069
:10328000B8F80000C0F38210A04201D0FFF7B6FEEC
:1032900098F80C004446385C0B287DD2DFE800F03B
:1032A000868E96A2ABB5BFC7D1D9E10098F80D20A4
:1032B000FF2A02D0FF2288F80D20C9064AD4D8F888
:1032C000000060E0001A0020B6A8C1BFC8A1CBAEC4
:1032D00000000000566F6C756D6574726963204460
:1032E000697370656E73696E67000000566F6C7568
:1032F0006D656E204175736761626500B2FA20CB1F
:10330000AE00000050726F6475637400D1AD20BBD5
:10331000B7000000526563697263756C6174696F10
:103320006E00000052657A69726B756C6174696F2A
:103330006E000000BECD20D0F70000005265616431
:10334000790000004265726569740000803B0108E5
:1033500028000020012810D002280ED0B8F81A004A
:103360000090DAF83000B1B240F23F1240783044B9
:1033700083B21FFA89F005F0B2F8D8F8000020F007
:103380001000C8F8000020F4E070C8F80000C0F396
:103390008210A04203D000E001E0FFF72FFE09B049
:1033A00042E498F80F005028F9D0B9E6206B18B124
:1033B000022801D0CBA10EE0CEA10CE0206B18B109
:1033C000022801D0CEA106E0D1A104E0206B38B1E3
:1033D000022805D0D2A1D6480DF075FE01254AE09D
:1033E000D4A1F8E7206B20B1022802D0AFF6C021AB
:1033F0003EE0D5A13CE0206B18B1022803D0D5A156
:1034000036E0D7A134E0DAA132E0206B18B102280F
:1034100003D0DBA12CE0DEA12AE0E2A128E0206BB2
:1034200018B1022801D0E5A122E0E7A120E0206B3D
:1034300018B1022803D0E7A11AE0EBA118E0EFA130
:1034400016E0206B18B1022801D0F1A110E0F4A120
:103450000EE0206B18B1022801D0F5A108E0F8A118
:1034600006E0206B18B1022801D0F9A100E0FCA110
:10347000AF480DF028FE207B617B3A5C4FF6E07090
:103480009142216821D18A0609D5638B98A23146E1
:103490004846FEF791FE206820F0200032E041F01F
:1034A0002001216005B9608B0090DAF83020238B71
:1034B000B1B295681FFA89F09D4AA847638B9C4A70
:1034C00031464846FEF778FE69E741F02001216069
:1034D00005B9608B0090DAF83020238BB1B2956883
:1034E0001FFA89F0924AA847638B914A31464846B1
:1034F000FEF762FE207B395C6173401C20732068FC
:1035000040F0100020604AE7DA484178DA48427813
:10351000914208D0D749026840390A6442684A6437
:103520000089A1F84800704710B50346FFF7ECFF8B
:10353000002B06D005225021BDE810405A20FFF78D
:10354000ACBB10BD10B5FEF7D6FEFEF76FFEBDE8B2
:1035500010403FE5C7494EF660222031486B50438A
:10356000C1F8F401B1F87220012A03D0C348C1F8B0
:10357000F4017047C24A10444008F8E7BD4910B54D
:1035800020310020087448748871C871C1F8100295
:10359000C1F81802BB498862FFF7D4FFBDE81040AC
:1035A000D8E71FB5B34C2034608B04F037FF206B95
:1035B00018B1022803D0B4A102E0B5A100E0B7A180
:1035C00068460DF080FD68460DF05BFDAD49401C7E
:1035D000096B0A78497852085043C0F1A000C1F144
:1035E00072016A46FEF700FE1FBD2DE9F843A14EA9
:1035F000DFF83C812036B6F87E00D6F81412421A65
:10360000306B58B3022829D0A7A140460EF038FCF1
:1036100040460DF036FD9B4F401C3A6B92F800C0BF
:103620004FEA5C0148435178C0F1A005708B0090CF
:10363000ACEB8C007E312844D2F808C00C46338BAA
:1036400080B29CA2E047708B00903A6B2146338B8E
:103650009468A8B24246A047BDE8F88396A1D4E793
:1036600010B5FEF748FEFEF7E1FDBDE8104098E713
:1036700080480021203002220174427481710122AD
:10368000C271C0F81412C0F810127E48C262E7E797
:1036900010B5784C2034207903280ED1D4E94801A4
:1036A00081420BD154F8C01FB4F8580000EBC0029F
:1036B00002EB001001EB8000206010BD08F046FB1B
:1036C000D4F8BC108142F8D2401A34F86C1F00EBD9
:1036D0008000400041433C20B1FBF0F0616D0844A4
:1036E000606510BDC7EBB8FCBBBBB4BFBBAFD6F9C0
:1036F00000000000455843482E55205041434B00E0
:10370000C7EBB8FCBBBBD7CFCDE2B5C6000000000D
:10371000455843482E5556204C414D50000000005E
:10372000C7EBB8FCBBBBB9FDC2CBD6F900000000AB
:10373000300C0020455843482E46494E414C204607
:10374000494C544552000000454D505459205441B5
:103750004E4B0000B2FACBAE3CC9E8B6A8D6B500D5
:1037600050524F44554354203C20532E502E0000BD
:1037700041555347414245203C20532E502E0000D6
:10378000BDF8CBAE203E20C9E8B6A8D6B5000000F3
:10379000464545442050524F44554354203E205303
:1037A0002E502E0045696E67616E67204155534764
:1037B000414245203E20532E502E0000CEC2B6C8B6
:1037C0003EC9E8B6A8D6B50054454D50203E20531A
:1037D0002E502E00BDF8CBAE20CEC2B6C83EC9E8F2
:1037E000B6A8D6B500000000464545442054454DD6
:1037F00050203E20532E502E0000000045696E6779
:10380000616E672054454D50203E20532E502E00AF
:10381000C7EBBCECB2E9D7CFCDE2B5C600000000E3
:10382000434845434B205556204C414D5000000025
:10383000C7EBBCECB2E9B4BFBBAFD6F900000000E7
:10384000434845434B2055205041434B0000000066
:10385000C7EBBCECB2E9544F43B5E7BCAB0000008A
:10386000434845434B20544F432053454E534F52FA
:1038700000000000E01900208C24002020BF02007E
:10388000C081FAFF280000205546B3E5CFB4000000
:10389000466C7573682055460000000053707565CE
:1038A0006C756E67205546002020256420C3EB20F0
:1038B0002000000020202000202025642053656384
:1038C0002020000010B5FE4C2079022815D108F008
:1038D0003DFAD4F8BC1081420FD2401A34F86C1F64
:1038E00000EB8000400041433C20B1FBF0F0616DF3
:1038F0000844606508F02AFA206510BD10B5F1484B
:1039000008F0FFFBBDE81040C2E610B5ED4808F036
:10391000F8FBBDE81040D5E7EB49096804E08142B7
:1039200001D10120704789680029F8D10020704733
:1039300070B5E54C0246206868B11046FFF7ECFF11
:10394000002825D1216813680868984205DDC01A4F
:10395000086020689060226010E079B118460B681A
:10396000C31A1360886830B105689D420EDD036894
:1039700015685B1B0360886890608A602068017925
:10398000BDE8704001208840FEF758BA0146E5E7DF
:1039900070BDCB4A042092F81C12042908D2CA4BED
:1039A00008461B1D195C042900D3042182F81C124F
:1039B0007047C34810B50079062808D00020FEF7EC
:1039C0003DFAC048BDE81040783008F09ABBFFF7D8
:1039D000E0FF04280ED2BD4A00EB4001642342F808
:1039E000213002EB810102230B714871BDE81040C8
:1039F00008469DE710BDAFF24500FEF779BBBDE577
:103A0000AFF20500FEF774BB1CB5FEF774FCFEF7C1
:103A10000DFCFFF7C7FAAB49A9481831CDE9000101
:103A2000D0F8F401AFF227030246002108F099FB19
:103A30001CBDA3480321017400214174012282713D
:103A4000C171C0F81812DFE700F004B8AFF2070048
:103A5000FEF74EBB7CB59C483838806A00283FD0C2
:103A6000974D05F5C67495F8210195F82011884207
:103A700040D2411C85F821112844092190F81C21CD
:103A80000620802A29740FD081216974A87105202D
:103A9000E871FEF730FCFEF7C9FBFFF753FACDE9FA
:103AA0000054B5F87A0012E080216974A8710420EE
:103AB000E871FEF720FCFEF7B9FBFFF75BFA95F81B
:103AC000210103280DD0CDE90054B5F878004FF45A
:103AD0007A714843AFF28B030022114608F041FB94
:103AE0007CBDAFF29703CDE900540022114644F6A5
:103AF0002060F3E7204608F004FB7248783008F0B5
:103B000000FB0020FEF79AF9BDE87C4091E71CB568
:103B10006B4C0021481EC4E949106B48012238381B
:103B20008023826204F58E7084F821110B54812168
:103B3000115402210B54032084F82001FFF78AFF5F
:103B400004F5D270CDE9004034F8780F618808445C
:103B5000801E4FF47A714843AFF26513642201214D
:103B600008F0FFFA1CBDD2E7AFF20500FEF7C0BABD
:103B70001CB5FEF7C0FBFEF759FBFFF713FA5149DE
:103B80004F481831CDE90001D0F8F401AFF2270316
:103B90000246002108F0E5FA1CBD494803210174E2
:103BA0000021417401228271C171C0F81812DFE74F
:103BB0004348B0F87200012800D03AE7EDE710B5AD
:103BC000FEF710FE3E4890F80011C9070CD00079AE
:103BD000022806D0032807D1FFF790FEBDE8104069
:103BE000E6E7FFF792FEF9E710BD10B5344C206808
:103BF00020F49050206008F0A9F8C4F8F0012046A5
:103C0000BDE8104005F026B82DE9F8432C4E3C23C2
:103C10003146DFF8BC80B1F81C11306BB1FBF3F218
:103C200003FB121360B302282AD02AA140460EF0EB
:103C300027F940460DF025FA234F401C383F3A6BD8
:103C400092F800C04FEA5C0148435178C0F1A005EA
:103C5000708B0090ACEB8C007E31338B2844D2F813
:103C600008C00C4680B2AFF2B432E047708B0090CF
:103C70003A6B2146338B9468A8B24246A047EBE4E6
:103C800019A1D3E72DE9F8430D4D688B04F0C6FB6D
:103C90000D4FE87B383F612858D0622879D1286BD6
:103CA000002877D0A9460228FBD014A630460DF094
:103CB000E8F93A6B401CB84611784908484327E0B8
:103CC000001A00202C1B002060000020881C00200F
:103CD000300C00202020256420B7D620256420C386
:103CE000EB2020200000000020202564204D696E7C
:103CF000202564205365632020000000496E736511
:103D000072742044756F5061636B202000000000C6
:103D1000C0F1A00550784F46C0F17204B9F81A00FE
:103D20000090D2F808C0B9F81830A1B2A8B2324653
:103D3000E047D8F83060798B641D7078009120449A
:103D40003B8B81B2F8A2A8B2B46855E0286B10B3DF
:103D5000022820D0F8A630460DF093F93A6B401CAB
:103D6000B846117849084843C0F1A0075078C0F11F
:103D70007204688B0090D2F808C02B8BA1B2B8B245
:103D80003246E047D8F83060641DE7A270782044DE
:103D900052E032E032E0ECA080460DF072F93A6B6E
:103DA000401C117849084843C0F1A0045078C0F184
:103DB0007206688B0090D2F808C02B8BB1B2A0B20B
:103DC0004246E047D7F830C0761DE4A29CF80100D7
:103DD0000644688B0090DCF808C02B8BB1B2A0B20F
:103DE000E0473F6B761D698B78780091304481B253
:103DF000A0B2BC68DEA22B8BA0472DE4E1A6304622
:103E00000DF03FF93A6B401CB84611784908484319
:103E1000C0F1A0075078C0F17204688B0090D2F80E
:103E200008C02B8BA1B2B8B23246E047D8F8306058
:103E3000641DCFA270782044698B009181B22B8BD6
:103E4000B8B281E7D44910B58A7B0A7448740879FE
:103E500088710020C871FEF7E9F9FEF74CFABDE859
:103E600010400FE72DE9F047CB4C04F5BA702179EB
:103E70008146052903D0BDE8F04708F042B9B4F8FF
:103E80001C0110B1401EA4F81C01B4F81E0110B1B1
:103E9000401EA4F81E01FFF7B7FE94F8200100278A
:103EA00001264FF4967828B10225012821D0022856
:103EB00045D1AAE0B4F81E010028F9D10021042060
:103EC000FCF709FF01210220FCF705FF0021032078
:103ED000FCF701FF00210846FCF7FDFE0121084622
:103EE000FCF7F9FE00210620FCF7F5FE84F82061BE
:103EF00086E0B4F81E010028DAD194F821010128E7
:103F00001ED0022839D001210420FCF7E4FE002154
:103F10000220FCF7E0FE01210320FCF7DCFE00217B
:103F20000846FCF7D8FE01210846FCF7D4FE002124
:103F30000620FCF7D0FE84F82161A4F81E51E6E0CB
:103F400000210420FCF7C7FE00210220FCF7C3FE7D
:103F500000210320FCF7BFFE00210846FCF7BBFE52
:103F600000210120FCF7B7FE00210620FCF7B3FE7C
:103F700084F821514FF46170C7E094F82201401C8D
:103F8000C0B284F82201052820D200210420FCF7C9
:103F9000A2FE01210220FCF79EFE00210320FCF777
:103FA0009AFE00210846FCF796FE01210846FCF720
:103FB00092FE00210620FCF78EFEA4F81E8184F8F4
:103FC000217176A10420FDF7C2FAA0E001210420AE
:103FD000FCF781FE00210220FCF77DFE002103207A
:103FE000FCF779FE00210846FCF775FE0121084622
:103FF000FCF771FE01210620FCF76DFE84F82051CC
:1040000084F82171A4F81E8181E0B4F81E01002813
:104010007DD194F8210130B1012820D002283AD076
:10402000032874D154E001210420FCF754FE01213F
:104030000220FCF750FE00210320FCF74CFE00217B
:104040000846FCF748FE01210846FCF744FE012122
:104050000620FCF740FE84F82161F02055E00121A4
:104060000420FCF738FE01210220FCF734FE012178
:104070000320FCF730FE00210846FCF72CFE01214E
:104080000846FCF728FE01210620FCF724FE84F8F0
:1040900021513C2039E000210420FCF71CFE0021C6
:1040A0000220FCF718FE00210320FCF714FE00217B
:1040B0000846FCF710FE01210846FCF70CFE012122
:1040C0000620FCF708FE032084F821011E201CE0D6
:1040D00000210420FCF7FFFD00210220FCF7FBFD7E
:1040E00000210320FCF7F7FD00210846FCF7F3FD53
:1040F00000210120FCF7EFFD00210620FCF7EBFD7D
:10410000042084F821014FF6FF70A4F81E01B4F8D2
:104110001C01002850D1484607F0F3FFFFF765FD6A
:10412000BDE8F04762208DE6C8BBBAF3B0B42053B7
:10413000455420BCFC000000BCD3C8EBC7E5BDE083
:10414000BCC1202020000000496E736572742020DD
:104150002020202020202020202000006361727475
:10416000726964676520616E642070696C6C000020
:104170007468656E20707265737320534554206BAC
:1041800065790000496E736572742044756F5061E3
:10419000636B20202C000000001A0020444953507B
:1041A0004C41595F55465F5355425F535441544506
:1041B0005F323A3000000000BDE8F087AFF25B30BC
:1041C000FDF796BFF8B5FE4D688B04F027F9286B14
:1041D000D0B102281AD0FBA420460CF052FF411C9B
:1041E000FA486B8B006B027852085143C1F1A00270
:1041F000417800932B8B96B2C1F17201856889B228
:1042000022463046A847F8BDF1A4E5E7F2A4E3E76B
:10421000EB4810B5017900F5AE70052903D0BDE873
:10422000104007F06EBF07F06CFFBDE81040612042
:1042300008E6AFF22300FDF75BBFF8B5E04D688BF1
:1042400004F0ECF8286BD0B102281AD0E5A420467F
:104250000CF017FF411CDD486B8B006B0278520895
:104260005143C1F1A002417800932B8B96B2C1F16A
:104270007201856889B222463046A847F8BDDCA4A1
:10428000E5E7DFA4E3E71CB5FEF735F8FDF7CEFF61
:10429000FFF7D3FFDE48CA49AFF26903CDE900104A
:1042A00047F230500246002107F05BFF1CBDC448B6
:1042B0000721017460214174052181710621C171BA
:1042C000002180F8201180F8211180F82211A0F837
:1042D0001C11A0F81E11D6E71CB5FEF70CF8FDF76F
:1042E000A5FFFFF76FFFFFF78FFCC948B4491830EF
:1042F000AFF23713CDE900104FF47A700246012176
:1043000007F02FFF1CBDAE48072200210274417444
:1043100005238371C27180F8201180F8211180F883
:10432000221141F6A621A0F81C11B421A0F81E11FB
:10433000D2E710B507F00AFDA14BD3F8F021824275
:104340000DD819688C050AD4801AB24AB0FBF2F075
:10435000B3F87C20824202D841F40070186010BD8E
:10436000FEF75BBA10B5FDF7C6FFFEF7F1FABDE840
:104370001040FFF7EFB892480521017450214174B5
:10438000924900208862EDE770B58D4C4FF478407B
:10439000658B608304F042F8FF210846FEF734FA8B
:1043A000658370BD10B5FDF7A6FFFDF73FFFBDE8C3
:1043B0001040E9E78068002800D000477047944823
:1043C00010B5303807F09DFE7D480179032907D0EC
:1043D000603891A1426EBDE810400420FDF7B7B8E7
:1043E000D0F82011C0F82411FFF752F9BDE81040B1
:1043F000FFF7DEBBAFF23900FDF77ABE1CB5FDF763
:104400007AFFFDF713FFFEF769FD8149874A80397E
:10441000888F504331F8702C90FBF2F00022C1E9F4
:104420001102DC3901F59672AFF23703CDE90012C3
:104430000246002107F095FE1CBD614810B50079C9
:1044400002280CD07248303807F05BFE5C4872A13D
:104450006038426EBDE810400420FDF778B8BDE832
:104460001040FFF72FBAAFF22D00FDF741BE1CB58B
:10447000FDF741FFFDF7DAFEFEF74CFD64485049B9
:104480003038AFF21D03CDE900104EF66020024631
:10449000012107F066FE1CBD10B5FEF7A3F9484ADE
:1044A0004A4B002160B104201074517402209071B5
:1044B000D1719962FFF7DBFFBDE81040FFF74AB802
:1044C0001174012050749171D171C3E90A10FFF782
:1044D00069FFF1E710B53A4C608B03F09FFF206B4A
:1044E00040B1022808D052A2FF21BDE81040084682
:1044F000FDF77ABE50A2F7E753A2F5E710B5FDF736
:10450000FAFEFDF793FEBDE81040E3E72DE9F8431E
:104510002B4EDFF844813146306BB1F81C2160B37B
:1045200002282AD0AFF6804140460DF0A9FC404653
:104530000CF0A7FD254F401C3A6B92F800C04FEAE3
:104540005C0148435178C0F1A005708B0090ACEB42
:104550008C007E31338B2844D2F808C00C4680B2E0
:10456000AFF6B042E047708B00903A6B2146338B38
:104570009468A8B24246A0473FE4AFF6C441D3E7EF
:10458000F8B50F4D688B03F049FFE87B9028286B46
:1045900073D098B1022877D030A420460CF071FD7A
:1045A000411C0A48006B027852085143C1F1A00235
:1045B00041787823A3EB51016B8B55E064E05CE01C
:1045C000001A0020554620C7E5CFB400280000207F
:1045D000466C757368000000537075656C756E6786
:1045E00000000000554620D7BCB1B8D6D00000006E
:1045F000554620507265706172652E2E2E000000A7
:10460000554620426572656974656E2E2E2E000037
:104610005C1B002080510100696E636F72726563DC
:10462000742073746174653A20256400C027090002
:10463000D0B920D1B90000005072657373757265EE
:104640002052656C69656600447275636B20616217
:104650006C617373656E0000300C0020C5C5C6F830
:10466000BDD7B6CE2032000000932B8B96B2856862
:1046700089B222463046A847F8BD18B1022801D0B9
:10468000F4A48AE7F6A488E7FAA486E7FE48FDF7D3
:104690002FBD1CB5FDF72FFEFDF7C8FDFFF770FF1E
:1046A000FA48A0F5DE71AFF21B03CDE900104FF41C
:1046B0007A700246012107F054FD1CBDF44810B584
:1046C0000821017491214174072181710321C17175
:1046D0000A21A0F81C11FFF7DCFFBDE8104015E728
:1046E00070B5EB4CE94D2079072804D02846BDE889
:1046F000704007F006BDB4F81C1111B1491EA4F8B2
:104700001C11FFF703FFB4F81C0100280CD16079DD
:10471000032802D0BDE87040D0E7284607F0F1FC3E
:10472000BDE87040FEF72ABF70BDD94810B508211A
:10473000017490214174072181710221C171B4215A
:10474000A0F81C11FFF7A5FFBDE81040DEE6F8B5A4
:104750001C4617460D46064607F0F8FACC490A6A89
:10476000801ACC4AB0FBF2F0B1F86020121A086B44
:1047700080B102280ED0CB8DC7A1CC480DF080FBB4
:10478000CB4A0094A9B2126BB0B23B469468C74AB8
:10479000A047F8BDCB8DC7A1EFE7F8B51C4617467B
:1047A0000D46064607F0D2FA0146B948426A891A10
:1047B000B84AB1FBF2F1B0F86820006B521A78B138
:1047C00002280DD0C1A1B9480DF05AFBB84A009497
:1047D000A9B2126BB0B23B469468B44AA047F8BD88
:1047E000BEA1F0E7F8B51C4617460D46064607F091
:1047F000ADFAA7498A6A801AA64AB0FBF2F0B1F86E
:104800006420121A086B062390B1022810D0888DFC
:10481000B7A1B0FBF3F3A5480DF032FBA44A009416
:10482000A9B2126BB0B23B469468A04AA047F8BD4B
:10483000888DB5A1B0FBF3F3EDE72DE9F041944F7E
:1048400086B01C4690460D460646B7F86C0001AB94
:1048500002220121FDF799FB3A6B92B1022A10D096
:1048600001AAAEA191480DF00BFB914A0094A9B2A8
:10487000126BB0B2434694688C4AA04706B0BDE8BC
:10488000F08101AAAAA1EDE7F8B5064680480D46D9
:104890001C46016BB0F86A00174621B1022902D00C
:1048A00040B1A74A08E008B1A54A01E0A44A08328D
:1048B000A4A102E0A24A0832A5A17C480DF0E0FACA
:1048C0007B4A0094A9B2126BB0B23B469468774A17
:1048D000A047F8BDF8B506466D480D461C46016B6D
:1048E000B0F86E00174621B1022902D038B19BA260
:1048F00006E008B19AA200E09AA29BA101E09FA263
:104900009FA16A480DF0BCFA694A0094A9B2126BE3
:10491000B0B23B469468654AA047F8BD2DE9F84F10
:104920001E46814612F806B00020DDF82CA0DFF804
:10493000808190551546CDF800A0D8F830200C465F
:1049400089B297681FFA89F02A460A9BB847284619
:104950000CF097FBD8F83020A1B2137800FB039736
:104960000A980090D2F804C0B8B253465A46E047BD
:10497000D8F8301035441FFA84FC0878CDF800A030
:1049800007448E686A1CB8B261460A9BB04740482B
:104990006A1C2146838B01B03846BDE8F04FFDF715
:1049A0000BBC2DE9FC5F1D46814612F805A00020D6
:1049B000DDF838B03E4F50551446CDF800B03A6B94
:1049C000884689B296681FFA89F022460D9BB04747
:1049D00020460CF056FB396B5B460A7804F805A0BC
:1049E00000FB02990C9804EB050A2E180020A15D2B
:1049F0000191A0550D9800903A6B1FFA88F11FFAAB
:104A000089F095685246A84750460CF03AFB396B3E
:104A10003219097800FB01900199A155CDF800B039
:104A20003B6B1FFA88F180B29C680D9BA047BDE8E4
:104A3000FC9F2DE9F043064655A01C4691460D46C5
:104A400090E80E0089B0C068DFF84480CDE90630F8
:104A5000A6E00000C5C5C6F8BDD7B6CE203100001F
:104A6000446567617373696E67205374616765207D
:104A700031000000446567617373696E6720537489
:104A80006167652032000000E1460008BC1B002081
:104A9000001A002080510100B4BFBBAFD6F93A25FF
:104AA0006420CCEC202564C9FD202000300C0020BF
:104AB000280000205041434B3A256420444159537B
:104AC0002025644C2020202000000000B9FDC2CB2E
:104AD000C6F73A256420CCEC2020200046494C54EF
:104AE00045523A25642044415953202020000000BB
:104AF000D7CFCDE2B5C63A256420CCEC2025642082
:104B0000D0A1CAB12020000055563A256420444166
:104B1000595320256448722020200000C1F7CBD9CA
:104B20003A257320C9FD2FB7D6D6D3202000000028
:104B3000464C4F573A2573204C2F6D696E2020004C
:104B4000942D0008554E49543A257320202020000A
:104B5000B5A5CEBB3A25732020202000BFAA0000B7
:104B60004F4E00004F464600464545442053454EB3
:104B7000534F523A2573202020200000B9D800005E
:104B8000BDF8CBAEB5E7BCAB3A25732020202000A2
:104B900000010203050608090B0C0E0F111200009C
:104BA000CDE90412D8F83000A0B3022833D0F8A120
:104BB000F9480CF088FAF94F0094A9B23A6BB0B2F8
:104BC0004B46D2F808C0F44AE047F3480CF059FAD3
:104BD000396B097800FB0166F148C17990F802C091
:104BE000437802788DE80E1083798288EDA1EA4837
:104BF0000DF046F998F80A000E280ED2CDE900947F
:104C000004A9E54A0B5C29463046FFF787FE09B048
:104C1000BDE8F083FFE7EBA1CAE700943A6BA9B2C5
:104C2000B0B294684B46DC4AA047F0E7F8B50646B8
:104C3000DB481C4616301746006B0D4618B102289B
:104C400003D0E2A102E0E4A100E0E8A1D2480CF028
:104C50003AFAD24A0094A9B2126BB0B23B469468B9
:104C6000CD4AA047F8BDF8B50646CD481C461630DB
:104C70001746006B0D4618B1022803D0E0A102E0F0
:104C8000E1A100E0E6A1C4480CF01DFAC34A00947B
:104C9000A9B2126BB0B23B469468BF4AA047F8BDB8
:104CA000F8B50646BE481C4616301746006B0D4642
:104CB00018B1022803D0E1A102E0E2A100E0E4A1E2
:104CC000B5480CF000FAB54A0094A9B2126BB0B224
:104CD0003B469468B04AA047F8BD2DE9FF4FB04E5F
:104CE0008046163685B0306B1D460C4618B102283A
:104CF00003D0DAA102E0DCA100E0DFA1A6480CF0BD
:104D0000E2F9DFF898B20095F17ADBF83030DFF89D
:104D100088A21FFA88F001EB0A029F68A1B2D94667
:104D2000079BB847F17A01EB0A000CF0AAF9D9F811
:104D300030104FF064090A7802FB0087B6F86A0069
:104D40000028D6F89C0045D0CF4901AB91FBF0F08C
:104D500003220121FDF719F9CC4B01AACCA18E4801
:104D60000DF08EF80095DBF83020A1B2B8B2D2F881
:104D700008C0D846884A079BE04787480CF081F96D
:104D8000D8F83010012201AB097801FB0077D6F882
:104D9000A8001146323090FBF9F0FDF7F6F801AAB1
:104DA000BDA17D480DF06CF80095D8F83020A1B277
:104DB000B8B2D2F808C0784A079BE047A6F8267236
:104DC000A6F828420798A6F82A02A6F82C5209B09D
:104DD000BDE8F08F323090FBF9F0012201AB0221E7
:104DE000B8E7F8B506466E48174616306C4A006BB1
:104DF0001C460D469E3218B1022803D0A8A102E03D
:104E0000AAA100E0ADA164480DF03AF8634A00940D
:104E1000A9B2126BB0B23B4694685F4AA047F8BD96
:104E20005F491631887B01280BD1B1F82602A0F525
:104E30007F42FF3A05D001F50A718B884A880988BC
:104E40004BE770472DE9F84F07460A2000269346A6
:104E50008A4608253446009006F070FF9B4850496A
:104E60004FF6FF7902680A6042684A60008908814B
:104E7000484603F0D3FADFF82881002108F116082C
:104E800088F8087088F80AA088F816B188F80B101E
:104E9000A8F82692A8F82892A8F82A92A8F82C92A6
:104EA000CBF1090A48F21F4962E006EB0B00092822
:104EB0005CD2DFE800F005162435446B6A696800AF
:104EC000B8F8841091BBB8F81C30BE4201D14A46F4
:104ED00001E0B8F8182029460098FFF738FC0021B7
:104EE0003DE0B8F81C30BE4201D14A4601E0B8F8B6
:104EF000182029460098FFF750FC01212FE0B8F850
:104F0000841099B9B8F81C30BE4201D14A4601E07C
:104F1000B8F8182029460098FFF764FC02211EE02B
:104F2000B8F81C30BE4202D14A4602E01EE0B8F892
:104F3000182029460098FFF780FC03210FE0B8F8FD
:104F4000841099B9B8F81C30BE4201D14A4601E03C
:104F5000B8F8182029460098FFF796FC042108EBC2
:104F60000400641C80F80811E4B21835761CF6B20F
:104F70005046BAF1090F00DD0920B04295DC88F8EF
:104F80000940BDE8F88FC2E0BEE0AFE0A0E000005D
:104F9000CAB1BCE43A000000300C00202800002018
:104FA000EA190020253034642D253032642D253057
:104FB000326420253032643A253032643A2530326A
:104FC0006400000054494D453A000000D3EFD1D4AD
:104FD0003AD6D0CEC40000004C414E47554147451B
:104FE0003A454E474C495348000000004C414E475B
:104FF000554147453A444555545343480000000045
:10500000C7E5CFB420554600434C45414E20554698
:105010002F444953494E46454354494F4E000000E2
:105020005245494E4947554E472055462F44455312
:10503000494E46454B54494F4E000000B3E5CFB4AE
:1050400020554600464C5553482055460000000068
:10505000535055454C554E4720554600BDF8CBAEF4
:10506000CBAED6CA3A0000004645454420515541D2
:105070004C4954593A00000045494E47414E475368
:10508000574552543A00000040420F00942D00084A
:105090002573202573200000257320A1E620200021
:1050A000D0F2C1D0BAC53A25730000005345524929
:1050B000414C204E4F3A25730000000053455249A1
:1050C000454E4E554D4D45523A2573008C240020D7
:1050D000B8F81C30BE4201D14A4601E0B8F81820A9
:1050E00029460098FFF7A5FC052138E7B8F81C30E1
:1050F000BE4201D14A4601E0B8F81820294600987E
:10510000FFF794FD06212AE7B8F8841029B1B8F812
:105110001C30BE420FD14A460FE0B8F81C30BE42E8
:1051200001D14A4601E0B8F8182029460098FFF757
:10513000D1FB072113E7B8F8182029460098FFF79C
:1051400050FE08210BE710B5FDF7D5F80022BDE8A9
:105150001040FF21104675E6F84801210174002136
:105160004174F0E72DE9F0430746F5A087B00068E9
:10517000DFF8C883069008EB8700994615460E466F
:105180000E9C806B02AB03220121FCF7FEFED8F8D7
:10519000300040B1022812D0002F1CD0012F1CD0AB
:1051A000022F43D01DE027B1012F04D0022F04D0DD
:1051B00017E0E4A112E0E7A110E0EAA10EE027B1B8
:1051C000012F04D0022F04D00BE0EAA106E0EDA1EC
:1051D00004E0F0A102E0F3A100E0F6A1F9480BF031
:1051E00072FFF94F0094A9B23A6BB0B24B46D2F8B5
:1051F00008C0F44AE047F3480BF043FF396B02AABA
:10520000097800FB0166F1A1EE480CF039FE98F830
:105210000A0004280CD2CDE9009406A9E94A0B5CE7
:1052200029463046FFF77AFB07B0F1E4E8A1D5E75D
:1052300000943A6BA9B2B0B294684B46E14AA047D9
:10524000F2E72DE9F0430746BDA087B00068DFF81C
:10525000EC82069008EB8700994615460E460E9C98
:10526000406C02AB03220121FCF78FFED8F830001E
:1052700038B102280FD0C7B1012F18D0022F3DD06E
:1052800019E017B1012F02D008E0D5A110E0D8A194
:105290000EE0DBA10CE027B1012F04D0022FF8D0E3
:1052A00009E0DBA104E0DEA102E0E1A100E0E4A16D
:1052B000C4480BF008FFC44F0094A9B23A6BB0B2D7
:1052C0004B46D2F808C0BF4AE047BE480BF0D9FEB3
:1052D000396B097800FB016602A9BA480BF0F3FEAE
:1052E00098F80A0004280BD2CDE9009406A9B54A23
:1052F0000B5C29463046FFF711FB95E7D4A1D7E7B1
:1053000000943A6BA9B2B0B294684B46AD4AA0473C
:105310008AE72DE9FE4F0446D1A0DFF820B20C9EAB
:10532000006802908846DBF830001D46174648F2B8
:105330001F4138B1022805D08D4219D1A4B1012CEA
:1053400014D01DE08D4207D114B1012C02D017E01A
:10535000C4A112E0C5A110E014B1012C02D00FE0ED
:10536000C4A10AE0C7A108E0CAA106E0CCA104E0FC
:1053700014B1012C33D003E0CCA192480BF0A3FE72
:10538000DFF844A20096B9B2DAF830201FFA88F0AC
:10539000D146D2F808C02B468A4AE04789480BF02C
:1053A00070FED9F83010D9460A78C4A100FB0288F3
:1053B0000BEB440058308388028882480CF060FD73
:1053C00099F80A0004280CD2CDE9005602A97D4ABA
:1053D0000B5C39464046FFF7A1FABDE8FE8FBEA13F
:1053E000CBE70096DAF83020B9B21FFA88F094685B
:1053F0002B46744AA047F0E72DE9F0434F4F04468F
:1054000085B0154607EB840099460E460122DDF86B
:105410003080006D01AB1146FCF7B7FD386B28B149
:10542000022803D064B1012C1CD00EE014B1012C71
:1054300003D00AE001AAACA104E001AAB0A101E0F6
:1054400001AAB5A15F480CF01BFD5F4ACDF80080B2
:10545000A9B2126BB0B24B4694685A4AA04705B045
:10546000BDE8F08301AAB2A1ECE72DE9FF470746AA
:10547000B5A00E46D0E90010304CCDE90210206BEB
:105480001D46914630B3022824D0B1A14D480CF0FE
:10549000F7FCDFF834810095B1B2D8F83020B8B20B
:1054A0004B46D2F808C0474AE04746480BF0E9FDB2
:1054B000D8F83010097800FB0177A07A0728206B14
:1054C00020D248B1B4F86230B4F86020022817D076
:1054D000A3A106E0A6A1D9E7B4F86230B4F8602031
:1054E000A7A138480CF0CCFCCDE90095A07A02A920
:1054F000344A0B5C31463846FFF710FABDE8FF87A7
:10550000A3A1EEE738B104F1600402286388228881
:1055100006D0A3A105E06034A5A16388228800E03D
:10552000A7A128480CF0ACFC0095D8F83020B1B207
:10553000B8B294684B46234AA047DFE7001A002020
:105540000002030443454C4C20434F4E53542E5508
:10555000503A000043454C4C20434F4E53542E4488
:10556000493A000043454C4C20434F4E53542E546F
:105570004F433A005A454C4C204B4F4E53542E55F6
:10558000503A00005A454C4C204B4F4E53542E4439
:10559000493A00005A454C4C20434F4E53542E5428
:1055A0004F433A00B5E7BCABB3A3CAFD2EC9CF2029
:1055B000203A0000B5E7BCABB3A3CAFD2ECFC22092
:1055C000203A0000300C0020280000202573000045
:1055D000B5E7BCABB3A3CAFD2E544F43203A00003D
:1055E00054454D5020434F4E53542E55503A0000D1
:1055F00054454D5020434F4E53542E44493A0000D9
:1056000054454D5020434F4E53542E544F433A006F
:1056100054454D50204B4F4E53542E55503A000098
:1056200054454D50204B4F4E53542E44493A0000A0
:10563000CEC2B2B9CFB5CAFD2EC9CF20203A0000E4
:10564000CEC2B2B9CFB5CAFD2ECFC220203A0000DB
:10565000CEC2B2B9CFB5CAFD2E544F43203A000096
:1056600004050B0C54502E55503A000054502E4453
:10567000493A000054454D502E532E502E55503A65
:105680000000000054454D502E532E502E44493AF0
:1056900000000000CEC2C9E82EC9CF3A00000000C9
:1056A000CEC2C9E82ECFC23A00000000CEC2B6C8B2
:1056B000C9E8B6A82EC9CF3A000000004D415820D5
:1056C00025303264204D494E202530326420A1E639
:1056D0002020202020200000CEC2B6C8C9E8B6A8ED
:1056E0002ECFC23A0000000050524F442052455382
:1056F0002E53502E55503A25734DA6B82E636D008B
:105700004645454420434F4E442E53502E3A257370
:10571000A6CC532F636D0000CBAED6CAC9E8B6A89D
:105720002EC9CF3A2573204DA6B82E636D00000018
:10573000CBAED6CAC9E8B6A82ECFC23A2573A6CC3E
:10574000532F636D0000000000010208090A0B00DE
:10575000B4BFBBAFD6F9CAD9C3FC203A00000000E1
:1057600025303364CCEC25303464C9FD00000000E2
:105770005041434B20204C494645203A0000000050
:10578000253033644441595320253034644C0000A3
:10579000253033645441474520253034644C0000A3
:1057A0002564CCEC2564C9FD2020202000000000E9
:1057B00025644441595325644C20202020000000DA
:1057C00025645441474525644C20202020000000DA
:1057D000F8B50D460646F048EF491746006BB1F89C
:1057E00068201C4618B1022803D0ECA102E0F1A108
:1057F00000E0F6A1FB480CF043FBFB4A0094A9B281
:10580000126BB0B23B469468F64AA047F8BD2DE94A
:10581000FF471C4692460D460646AFF2D400D0E93B
:105820000010DD4FCDE902103A6B0DF10809012A95
:1058300008D103204B46195C891E1954401CC0B284
:105840000728F8D3B8462AB3022A23D0E7A1E548AF
:105850000CF016FBE44F0094A9B23A6BB0B2534679
:10586000D2F808C0DF4AE047DE480BF00AFC396B8B
:10587000097800FB016698F80A000728D8F830007C
:1058800020D248B1B8F86630B8F86420022817D0A2
:10589000DAA106E0DDA1DAE7B8F86630B8F86420EE
:1058A000DEA1D0480CF0ECFACDE900A498F80A107B
:1058B000CC4A304619F801302946FFF72FF81DE68B
:1058C000DAA1EEE738B1B8F86630B8F864200228FB
:1058D00007D0DAA106E0B8F86630B8F86420DBA19A
:1058E00000E0DEA1BF480CF0CBFA00943A6BA9B2FD
:1058F000B0B294685346BB4AA047FFE5F8B50D46E1
:105900000646A548A4491746006B4A6B1C4618B1C9
:10591000022803D0D5A102E0DBA100E0E1A1B1485B
:105920000CF0AEFAB04A0094A9B2126BB0B23B468A
:105930009468AC4AA047F8BDF8B50D4606469648AF
:1059400095491746006BB1F87C201C4618B1022817
:1059500003D0DBA102E0E1A100E0E7A1A1480CF047
:105960008FFAA14A0094A9B2126BB0B23B46946878
:105970009C4AA047F8BDF8B50D46064686488649BC
:105980001746006BB1F87E201C4678B102280FD074
:10599000E0A194480CF074FA934A0094A9B2126BF7
:1059A000B0B23B4694688F4AA047F8BDDFA1F0E74C
:1059B000E4A1EEE7F8B50D46064677487649174666
:1059C000006BB1F880201C4678B102280FD0E3A10B
:1059D00084480CF055FA844A0094A9B2126BB0B214
:1059E0003B4694687F4AA047F8BDE3A1F0E7E9A1F0
:1059F000EEE72DE9F74F82B080460A20002601909D
:105A00000F46082534464FF6FF7002F007FDDFF819
:105A1000889148F21F4A89F8088089F80A70049929
:105A200089F81611002189F80B100498C0F10E0BAB
:105A3000A5E0049837180E2F72D2DFE807F0071A96
:105A4000071A071A343447475A6A7989B9F8841013
:105A5000002965D1B9F81C000090464501D1534694
:105A600001E0B9F8183078082A460199FFF77AFB67
:105A700014E0B9F8840000287FD1781EB9F81C1012
:105A80000091464501D1534601E0B9F8183000EBCA
:105A9000D07040102A460199FFF7D3FB09EB0400B0
:105AA00080F8087166E0B9F88410002965D1B9F86A
:105AB0001C000090464501D1534601E0B9F818306A
:105AC000B81F2A460199FFF724FCE7E7B9F88410CC
:105AD00031BBB9F81C000090464501D1534601E0A6
